:100000000C94A0000C94C8000C94C8000C94A90493
:100010000C94A9040C94A9040C94C8000C94C80076
:100020000C94C8000C94C8000C94C8000C94C80030
:100030000C94C8000C94C8000C94C8000C94C80020
:100040000C945F040C94C8000C94C4020C949E029F
:100050000C94C8000C94C8000C94C8000C94C80000
:100060000C94C8000C94C8005D1374139413AE1361
:10007000F2131F14C71441545A0041545A004154FA
:1000800045004154493D34004368616E6765204C2A
:10009000454420616374697669747920746F204DDA
:1000A0004F4445004F4B2100496E697469616C698A
:1000B00073696E672074686520426C756566727539
:1000C0006974204C45206D6F64756C653A20000A98
:1000D0003C2D20000A3C2D20002B2B2B002B2B2B02
:1000E0000000000000240027002A00000000080093
:1000F00002010000030407000000000000000000EF
:1001000000000023002600290001020408102040FE
:1001100080010204081020010204081020000000E1
:1001200000250028002B0004040404040404040235
:100130000202020202030303030303006C1B4E1BB3
:1001400011241FBECFEFD8E0DEBFCDBF12E0A0E08C
:10015000B1E0E4EFF5E402C005900D92A434B107DC
:10016000D9F724E0A4E4B2E001C01D92A337B2079E
:10017000E1F710E0CFE9D0E004C02197FE010E9432
:100180008621CE39D107C9F70E946E0E0C94ED225C
:100190000C940000FC01538D448D252F30E0842FFA
:1001A00090E0821B930B541710F0CF96089501979F
:1001B0000895FC01918D828D981761F0828DDF0189
:1001C000A80FB11D5D968C91928D9F5F9F73928F4A
:1001D00090E008958FEF9FEF0895FC01918D828D3F
:1001E000981731F0828DE80FF11D858D90E008950C
:1001F0008FEF9FEF0895FC01918D228D892F90E064
:10020000805C9F4F821B91098F739927089581EC21
:1002100092E00E94FB0021E0892B09F420E0822F6C
:100220000895FC01848DDF01A80FB11DA35ABF4FB3
:100230002C91848D90E001968F739927848FA689E5
:10024000B7892C93A089B1898C9180648C93938D0C
:10025000848D981306C00288F389E02D80818F7DFC
:1002600080830895EF92FF920F931F93CF93DF93B4
:10027000EC0181E0888F9B8D8C8D981305C0E889F7
:10028000F989808185FD24C0F62E0B8D10E00F5F6B
:100290001F4F0F731127E02E8C8DE8120CC00FB684
:1002A00007FCFACFE889F989808185FFF5CFCE0177
:1002B0000E941101F1CF8B8DFE01E80FF11DE35A71
:1002C000FF4FF0820B8FEA89FB898081806207C033
:1002D000EE89FF896083E889F98980818064808361
:1002E00081E090E0DF91CF911F910F91FF90EF900F
:1002F0000895CF93DF93EC01888D8823C9F0EA89B4
:10030000FB89808185FD05C0A889B9898C9186FD0E
:100310000FC00FB607FCF5CF808185FFF2CFA8890B
:10032000B9898C9185FFEDCFCE010E941101E7CFF5
:10033000DF91CF91089580E090E0892B29F00E9411
:10034000070181110C9400000895833081F028F496
:10035000813099F08230A1F008958730A9F088307B
:10036000B9F08430D1F4809180008F7D03C08091FA
:1003700080008F7780938000089584B58F7702C0C6
:1003800084B58F7D84BD08958091B0008F7703C0C0
:100390008091B0008F7D8093B00008952091460237
:1003A000309147022817390771F4909144028091E7
:1003B0004502981741F0E0914402F0E0E858FD4F03
:1003C000808190E008958FEF9FEF089508951F9327
:1003D000CF93DF93DC015C962D913C915D972115C5
:1003E000310539F481E090E013969C938E93129737
:1003F0003DC05196ED91FC91529750969C9150972B
:10040000892F80951FB75E964C915E9741FB7727A9
:1004100070F941FD6095F8944081772311F0492BE4
:1004200001C048234083E9012197F1F748E050815A
:1004300060FF02C0592B01C058235083E901219766
:10044000F1F76695415099F7772321F09081892340
:10045000808303C08081982B90831FBF5C968D9111
:100460009C915D970197F1F721E030E0C901DF91A0
:10047000CF911F910895209146023091470228178D
:10048000390771F4809145022091440290E0805C2C
:100490009F4F821B910960E470E00E9472210895D1
:1004A00080E090E00895209146023091470228179D
:1004B0003907B9F49091440280914502981789F068
:1004C000E0914402F0E0E858FD4F80812091440221
:1004D00030E02F5F3F4F2F7333272093440290E08B
:1004E00008958FEF9FEF0895FC01EF59FF4F808132
:1004F0009181DC01ED91FC910680F781E02D09945A
:10050000FC01EF59FF4F80819181DC01ED91FC915D
:100510000484F585E02D0994FC01EF59FF4F80819B
:100520009181DC01ED91FC910284F385E02D099429
:10053000089580E090E008950E94CD221F920F92CE
:100540000FB60F9211242F933F934F935F936F93A6
:100550007F938F939F93AF93BF93EF93FF9381EC20
:1005600092E00E941101FF91EF91BF91AF919F9195
:100570008F917F916F915F914F913F912F910F904C
:100580000FBE0F901F9018951F920F920FB60F92EB
:1005900011242F938F939F93EF93FF93E091D102B8
:1005A000F091D2028081E091D702F091D80282FDD1
:1005B00012C090818091DA028F5F8F732091DB02ED
:1005C000821751F0E091DA02F0E0EF53FD4F958F82
:1005D0008093DA0201C08081FF91EF919F918F910A
:1005E0002F910F900FBE0F901F9018951F93CF93D0
:1005F000DF93282F30E0F901E551FF4F8491F90195
:10060000E75FFE4FD491F901E95DFE4FC491CC2321
:10061000C9F0162F81110E94A501EC2FF0E0EE0F1A
:10062000FF1FE35EFE4FA591B4918FB7F8941111AF
:1006300005C09C91ED2FE095E92302C0EC91ED2BD4
:10064000EC938FBFDF91CF911F910895CF93DF93EC
:1006500090E0FC01E75FFE4F2491FC01E95DFE4F55
:100660008491882361F190E0880F991FFC01EF517C
:10067000FF4FC591D491FC01E35EFE4FA591B4916B
:10068000611109C09FB7F8948881209582238883DF
:10069000EC912E230BC0623061F49FB7F89438813F
:1006A000822F809583238883EC912E2B2C939FBFE0
:1006B00006C08FB7F894E8812E2B28838FBFDF9177
:1006C000CF9108953FB7F8948091BD029091BE02FA
:1006D000A091BF02B091C00226B5A89B05C02F3FD4
:1006E00019F00196A11DB11D3FBFBA2FA92F982F58
:1006F0008827820F911DA11DB11DBC01CD0142E0D3
:10070000660F771F881F991F4A95D1F708958F921A
:100710009F92AF92BF92CF92DF92EF92FF926B01C6
:100720007C010E9462034B015C01C114D104E1040D
:10073000F104F1F00E946203DC01CB0188199909F0
:10074000AA09BB09883E9340A105B10570F321E0D9
:10075000C21AD108E108F10888EE880E83E0981EDD
:10076000A11CB11CC114D104E104F10419F7DDCFBF
:10077000FF90EF90DF90CF90BF90AF909F908F90C1
:1007800008950F931F93CF93DF93EC018C010F59C2
:100790001F4FD8018D919C91DC01ED91FC9100845B
:1007A000F185E02D0995C15ADF4F2881892B81F40D
:1007B000121674F460E0822F0E94F60261E070E08D
:1007C00080E090E00E94870361E088810E94F60249
:1007D000F80180819181DC01ED91FC910084F1852B
:1007E000E02DDF91CF911F910F910994DF92EF924D
:1007F000FF920F931F93CF93DF93EC01E62E8D852D
:10080000882321F081EC92E00E94550D8E01005A60
:100810001F4FD8018C9187FD26C0F801208130E060
:10082000F901E551FF4F8491F901E75FFE4FD49044
:10083000F901E95DFE4FF490FF20F1F081110E9473
:10084000A501EF2DF0E0EE0FFF1FE150FF4FA59146
:10085000B491EC91ED2181F061E070E080E090E0F6
:100860000E948703DACFFE01E859FF4F608170E0F4
:1008700080E090E00E94870383EC90E00197F1F71D
:10088000CF59DF4F88819981DC01ED91FC91019076
:10089000F081E02D6E2DDF91CF911F910F91FF9090
:1008A000EF90DF9009942FB7F8946091B90270919E
:1008B000BA028091BB029091BC022FBF08951F9293
:1008C0000F920FB60F9211242F933F938F939F9304
:1008D000AF93BF938091B9029091BA02A091BB02ED
:1008E000B091BC023091B80223E0230F2D3720F4E1
:1008F0000196A11DB11D05C026E8230F0296A11D7A
:10090000B11D2093B8028093B9029093BA02A093CC
:10091000BB02B093BC028091BD029091BE02A09137
:10092000BF02B091C0020196A11DB11D8093BD020E
:100930009093BE02A093BF02B093C002BF91AF914B
:100940009F918F913F912F910F900FBE0F901F900D
:1009500018951F920F920FB60F9211242F933F9369
:100960004F935F936F937F938F939F93AF93BF93B7
:10097000EF93FF93E0914602F0914702309709F41C
:1009800051C0968DA685B785858591FF04C09C9141
:10099000892329F447C09C91892309F043C0A38986
:1009A000B4899C918589809589238C9386899789C0
:1009B0000197F1F7608D718DA685B785558538E073
:1009C00020E0CB010197F1F7822F90E09595879574
:1009D000282F4C91452309F02068315091F7868DDE
:1009E00081FD20958091450290E001968F739927B3
:1009F00030914402381749F0A0914502B0E0A85860
:100A0000BD4F2C938093450203C0868D8160868FF5
:100A1000828D938D0197F1F7A389B4899C91858983
:100A2000892B8C93FF91EF91BF91AF919F918F9103
:100A30007F916F915F914F913F912F910F900FBEDA
:100A40000F901F901895E0914602F0914702E81729
:100A5000F90769F4A389B4899C91858980958923D4
:100A60008C93109247021092460281E0089580E034
:100A70000895CF93DF9320E231E0FC01318320839E
:100A8000EB59FF4FC081D181209701F1E881F981B5
:100A90000680F781E02DCE010995EA89FB898081E6
:100AA0008F7E8083EA89FB898081877F8083EA89C2
:100AB000FB8980818F778083EA89FB8980818F7DA4
:100AC00080838A8D898FDF91CF910895FC01ED5944
:100AD000FF4F80819181DF91CF910C942305CF93BB
:100AE000DF93EC010E943905CE01DF91CF910C9488
:100AF0003522EF92FF920F931F93CF93DF93CDB7E1
:100B0000DEB7C154D1090FB6F894DEBF0FBECDBF1A
:100B10008C01FC018585882331F06FEC70E081EC5D
:100B200092E00E94F60D7801FEE0EF0EF11CF80154
:100B300044815581BE016F5F7F4FC8010E94940DB3
:100B4000892BC9F06AE372E0CE0101960E94DD2292
:100B5000892B79F06DE372E0CE0101960E94DD22CF
:100B6000892B49F0BE016F5F7F4FC7010E94E622CB
:100B7000DECF81E001C080E0CF5BDF4F0FB6F8949D
:100B8000DEBF0FBECDBFDF91CF911F910F91FF90C0
:100B9000EF9008952F923F924F925F926F927F92C3
:100BA0008F929F92AF92BF92CF92DF92EF92FF927D
:100BB0000F931F93CF93DF9300D000D0CDB7DEB754
:100BC0009C838B837A836983442E39017801C12CFD
:100BD000D12C512C242E312C21E0221A310854140E
:100BE00009F4CEC0511005C06DE38B819C810E9439
:100BF000550DD3010D911D913D01C8018827811527
:100C0000B4E09B0709F478C0A8F48115F2E09F07CF
:100C100089F1811523E0920709F474C08115914090
:100C200009F09EC0F701608171818B819C810E94D7
:100C3000920D96C08115B6E09B0709F47FC040F481
:100C40008115954009F08CC0D7016D917C9184C0CD
:100C5000811527E0920709F47AC08115984009F0C0
:100C60007FC0F701408151816281738155276627DA
:100C700077276BC0D7018D909C90112701501109E7
:100C800008F46EC0BFEF8B1A9B0AF4013197B08055
:100C9000AB81BC81ED91FC910190F081E02D8B2D19
:100CA00082958F708A3010F067E301C060E3680FAF
:100CB0008B819C810995AB81BC81ED91FC91019068
:100CC000F081E02D2B2D2F702A3010F067E301C04A
:100CD00060E3620F8B819C8109950115110571F20A
:100CE000AB81BC81ED91FC9111970190F081E02DD9
:100CF0006DE2CD010995C2CFF7014081518162813A
:100D0000738123C0D7018D909D90AD90BC90B7FEAC
:100D10000DC06DE28B819C810E94550D44275527A3
:100D2000BA01481959096A097B090FC02AE0B501BF
:100D3000A4018B819C810E94F80C12C0F7014081B4
:100D4000518162817381662777272AE0F2CFD7012C
:100D50006C91062E000C770B8B819C810E945C0DA0
:100D6000C214D30429F06CE28B819C810E94550D42
:100D70005394BFEFCB1ADB0AE4E0EE0EF11C2FCF49
:100D800065E571E08B819C810E94590E89819A8171
:100D9000892B61F1AB81BC811D968C91882331F048
:100DA00064ED70E081EC92E00E94F60D0B811C81F5
:100DB000025F1F4FEB81FC8144815581B801CF0157
:100DC0000E94940D892B41F040E050E060E070E01B
:100DD000C8010E94531D03C060E070E0CB01A981EF
:100DE000BA816D937D938D939C9313978B819C8196
:100DF0000F900F900F900F90DF91CF911F910F9157
:100E0000FF90EF90DF90CF90BF90AF909F908F902A
:100E10007F906F905F904F903F902F900C9479054A
:100E20006F927F928F929F92BF92CF92DF92EF92BA
:100E3000FF920F931F93CF93DF93EC013B016A0165
:100E4000B22E48018701FC84F11007C0E881F981C6
:100E50000684F785E02D61E00995B301CE010E947B
:100E6000F60D94014B2DB601CE010E94CA05182F34
:100E7000F11008C0E881F9810684F785E02D60E073
:100E8000CE010995812FDF91CF911F910F91FF9096
:100E9000EF90DF90CF90BF909F908F907F906F905A
:100EA00008954F925F926F927F92BF92CF92DF929E
:100EB000EF92FF920F931F93CF93DF9300D000D058
:100EC000CDB7DEB7623008F046C0B62E6C01FC012B
:100ED000E25AFF4F808187FD09C00E94F60261E05F
:100EE00070E080E090E00E94870331C0E12CF12C9B
:100EF00000E010E020E0AE014F5F5F4F6DED70E06D
:100F0000C6010E941007882301F14B2C512C612C43
:100F1000712C89819A81AB81BC8184159505A605C8
:100F2000B705A9F020E0AE014F5F5F4F69ED70E0BB
:100F3000C6010E94100749815A816B817C8144154A
:100F400055056605770539F403C080E001C081E0EE
:100F5000F601B48601C080E00F900F900F900F90C3
:100F6000DF91CF911F910F91FF90EF90DF90CF9085
:100F7000BF907F906F905F904F9008950F931F9355
:100F80000E9453046093C9027093CA028093CB02FB
:100F90009093CC02E091C102F091C2020484F585E5
:100FA000E02D81EC92E0099597FF1FC00E94530449
:100FB0000091C9021091CA022091CB023091CC025B
:100FC000DC01CB01801B910BA20BB30B0091C5027E
:100FD0001091C6022091C7023091C8028017910774
:100FE000A207B307B8F28FEF9FEF1F910F910895FB
:100FF000CF92DF92EF92FF920F931F93CF93DF93E5
:10100000EC016A017B01E889F98982E0808341155E
:10101000514E61057105B1F060E079E08DE390E03B
:10102000A70196010E94CA1F89019A010150110966
:1010300021093109369527951795079598010115CE
:101040001041A8F0E889F989108260E874E88EE11F
:1010500090E0A70196010E94CA1FDA01C901019719
:10106000A109B109B695A795979587959C01EC853F
:10107000FD853083EE85FF852083188EEC89FD8900
:1010800086E08083EA89FB89808180618083EA89A8
:10109000FB89808188608083EA89FB898081806800
:1010A0008083EA89FB8980818F7D8083DF91CF9166
:1010B0001F910F91FF90EF90DF90CF9008950F93C5
:1010C0001F93CF93DF93CDB7DEB729970FB6F89470
:1010D000DEBF0FBECDBF8091360490913704892BBF
:1010E00009F4A2C00E94620300913C0410913D04E7
:1010F00020913E0430913F04DC01CB01801B910B19
:10110000A20BB30B8C329140A105B10558F3F894B2
:1011100080913204909133049A838983E09136045C
:10112000F0913704DF0111968081898790912E0418
:10113000E0914004F091410480914204992309F424
:101140002EC09081982B98879081809589238F83DA
:101150008F818C8388E08B8358856F8149853B81A3
:101160002C8189819A81508347FD252F3A952083D0
:10117000262F39F0441F00C000006083000000C02B
:10118000F2CF38E04D9160830000019761F7F09352
:101190004104E093400449873B832C8338C090810D
:1011A000982B98879081809589238F838F818E8358
:1011B00088E08D8358856F8149853D812E818981A5
:1011C0009A81508347FD252F00C000C0208300C0B6
:1011D00000C000C000C000C060830000262F3A9508
:1011E00041F0441F000000C000C000C000C000C0AB
:1011F000E8CF38E04D9100C0608300C0019709F747
:10120000F0934104E093400449873D832E839A8301
:10121000898378940E94620360933C0470933D0438
:1012200080933E0490933F0429960FB6F894DEBF56
:101230000FBECDBFDF91CF911F910F9108950F93F6
:101240001F93E0913004F09131048E179F0708F04E
:1012500042C030913504332381F0639FB0011124E3
:10126000672F439FA0011124452F239FF0011124D4
:101270002F2F039F80011124012F30913B045091A7
:101280003804E0913604F0913704351308C0DC01CE
:10129000AA0FBB1F8A0F9B1F8E0F9F1F0AC0880FAC
:1012A000991F880F991F8E0F9F1FFC01E30FF11DDF
:1012B000008330913804FC01E30FF11D608330910D
:1012C0003904FC01E30FF11D408330913A04FC0125
:1012D000E30FF11D20831F910F910895E0913004D9
:1012E000F09131048E179F07F0F5309135043323C8
:1012F00061F0639FB0011124672F439FA001112467
:10130000452F239F90011124232F30913B045091AE
:101310003804E0913604F0913704351308C0DC013D
:10132000AA0FBB1F8A0F9B1F8E0F9F1F0AC0880F1B
:10133000991F880F991F8E0F9F1FFC01E30FF11D4E
:10134000108230913804FC01E30FF11D608330916D
:101350003904FC01E30FF11D408330913A04FC0194
:10136000E30FF11D208308954F925F926F927F9259
:101370008F929F92AF92BF92CF92DF92EF92FF92A5
:101380000F931F93CF93DF9320913004309131045A
:101390008217930708F0F5C020913B04E0903804D1
:1013A000609136047091370480903504422F50E0EC
:1013B0001091390400913A04EC012E1164C0CC0F55
:1013C000DD1FC80FD91FC60FD71F882009F443C0DF
:1013D000912CA12CB12CFE01E40FF51F608170E06F
:1013E000762F6627072E000C880B990BA501940118
:1013F0000E94CA1F390155244424FE01E10FF11D4A
:10140000608170E0762F6627072E000C880B990B01
:10141000A50194010E94CA1FB42FA32F922F8827E1
:1014200073016201C82AD92AEA2AFB2AC00FD11DFA
:10143000688170E0762F6627072E000C880B990BC9
:10144000A50194010E94CA1FC701B601622B732B2C
:10145000842B952B99C0FE01E40FF51F2081FE011E
:10146000E10FF11D6081862F90E0A0E0B0E0BA2F7F
:10147000A92F982F8827A22BC00FD11D2881BC012E
:10148000CD01622B81C0CC0FDD1FCC0FDD1FC60F3D
:10149000D71FF12C882009F458C0912CA12CB12C15
:1014A000FE01E40FF51F608170E0762F6627072E9E
:1014B000000C880B990BA50194010E94CA1F722E83
:1014C000662455244424FE01EE0DFF1D608170E06A
:1014D000762F6627072E000C880B990BA501940127
:1014E0000E94CA1F7901DD24CC24C428D528E6280F
:1014F000F728FE01E00FF11D608170E0762F66276E
:10150000072E000C880B990BA50194010E94CA1F9D
:10151000C22AD32AE42AF52AC10FD11D688170E0BE
:10152000762F6627072E000C880B990BA5019401D6
:101530000E94CA1FB42FA32F922F8827BC01CD0170
:101540006C297D298E299F291FC0FE01E40FF51FFC
:101550002081FE01EE0DFF1D6081862F90E0A0E04E
:10156000B0E0DC0199278827B22BFE01E00FF11DC6
:101570002081822BC10FD11D2881BC01CD01722B8E
:1015800003C060E070E0CB01DF91CF911F910F911C
:10159000FF90EF90DF90CF90BF90AF909F908F9093
:1015A0007F906F905F904F9008952F923F924F924F
:1015B0005F926F927F928F929F92AF92BF92CF92E3
:1015C000DF92EF920F931F93CF93DF931F92CDB7CC
:1015D000DEB7762E142F682F70E080E090E029832C
:1015E0000E949B1E1B012C018EE2882E84E0982E07
:1015F0002981622F70E080E090E00E949B1EA20192
:1016000091010E946420A60195010E94FC1E9B018D
:10161000AC01C201B1010E9465200E944321F40186
:1016200063A3672D70E080E090E00E949B1E2B0179
:101630003C01602F70E080E090E00E949B1EA301BF
:1016400092010E946420A60195010E94FC1E9B014C
:10165000AC01C301B2010E9465200E944321F40144
:1016600064A3612F70E080E090E00E949B1E2B013C
:101670003C016E2D70E080E090E00E949B1EA30173
:1016800092010E946420A60195010E94FC1E9B010C
:10169000AC01C301B2010E9465200E944321F40104
:1016A00065A320E030E0A901C601B5010E94FC1E3F
:1016B00020E030E0A9010E9465200E944321F4014E
:1016C00066A30F90DF91CF911F910F91EF90DF9064
:1016D000CF90BF90AF909F908F907F906F905F90D2
:1016E0004F903F902F900895DF92EF92FF920F93CB
:1016F0001F93CF93DF93182FF62EE42ED22EC0E047
:10170000D0E00D2D2E2D4F2D612FCE010E941F09EF
:101710002196C03FD105A9F7DF91CF911F910F917D
:10172000FF90EF90DF900C945F082F923F924F92C2
:101730005F926F927F928F929F92AF92BF92CF9261
:10174000DF92EF92FF920F931F93CF93DF9300D01E
:1017500000D000D0CDB7DEB75A83498328013901C4
:101760001E2DFC2C9A2C2A2C269426943C2C369444
:1017700036948E2C86948694282F30E03E832D83D9
:10178000260F311D3C832B838D819E81EB81FC8153
:101790008E179F0774F589819A81892B49F463011B
:1017A0005201E92C0F2D212F422D632D882D0CC0C5
:1017B000E981FA813197E9F463015201E22C032DAA
:1017C000282D492D6F2D812F0E94D50A0091540498
:1017D0002091530440915204609151048D819E8167
:1017E0000E941F092D813E812F5F3F4F3E832D8335
:1017F000CBCF26960FB6F894DEBF0FBECDBFDF91DC
:10180000CF911F910F91FF90EF90DF90CF90BF90FD
:10181000AF909F908F907F906F905F904F903F9090
:101820002F900895611116C08A3010F196EF980F2D
:101830009A3020F19CEE980F9A3050F192EE980F6A
:101840009A3060F198ED980F9A3060F182538A30A7
:1018500098F137C08230E1F028F4882349F08130D4
:1018600081F50CC08430F1F0C8F0853029F129C031
:101870008FEF809351041092520405C010925104CE
:101880008FEF80935204109253041092540422C09C
:1018900010925104109252048FEF0BC08FEF80937F
:1018A0005104EFCF80EA8093510480E28093520488
:1018B00080EF80935304E9CF8FEF8093510485EA42
:1018C000E0CF1092510410925204109253048FEF03
:1018D000809354042091540460915104862F90E029
:1018E000A0E0B0E0DC0199278827B22B20915304B7
:1018F000822B20915204BC01CD01722B0895FF92DE
:101900000F931F93CF93DF9300D000D0CDB7DEB7F6
:101910000E94BE07FC0197FD11C08D32910591F028
:10192000C0970A9778F0E091C102F091C202028458
:10193000F385E02D81EC92E00995EACF60E070E05C
:10194000CB014CC020E030E0A901F12CE130F105E1
:10195000F1F0ED32F105C9F0CF01C0970A97B8F464
:10196000AAE0B0E00E940B208F01FF0F220B330B87
:10197000DC01CB01800F911FA21FB31F9C01AD01A1
:10198000205331094109510902C0FF24F394E09129
:10199000C102F091C2020284F385E02D81EC92E055
:1019A00029833A834B835C8309950E94BE07FC011F
:1019B000C09729813A814B815C810A9738F2E130E6
:1019C000F10521F2FF2041F066277727CB01621B4A
:1019D000730B840B950B02C0CA01B9010F900F90D5
:1019E0000F900F90DF91CF911F910F91FF9008956D
:1019F0004F925F926F927F92EF92FF920F931F939D
:101A0000CF93DF93CDB7DEB7A1970FB6F894DEBFC3
:101A10000FBECDBF7C01FA01CB0119A2223008F420
:101A20002AE08E010F5D1F4F422E512C612C712C2C
:101A3000BF01A30192010E94CA1FF901CA0101500E
:101A400011096A3014F4605D01C0695CD8016C93BF
:101A5000232B242B252B61F7B801C7010E94590EB7
:101A6000A1960FB6F894DEBF0FBECDBFDF91CF9128
:101A70001F910F91FF90EF907F906F905F904F902C
:101A800008950F931F93CF93DF93EC010E94590E9B
:101A90008C0165E571E0CE010E94590E800F911F07
:101AA000DF91CF911F910F910895DC01ED91FC9191
:101AB0000190F081E02D0994CF92DF92EF92FF9296
:101AC0000F931F93CF93DF936B01770FEE08FF08FF
:101AD000F7FE1BC0EC016DE20E94550D8C014427FE
:101AE0005527BA014C195D096E097F092AE0CE011C
:101AF0000E94F80C800F911FDF91CF911F910F91E1
:101B0000FF90EF90DF90CF9008952AE0B701A601F3
:101B1000DF91CF911F910F91FF90EF90DF90CF90C9
:101B20000C94F80C0C94590ECF92DF92EF92FF9226
:101B30000F931F93CF93DF937C016B018A01C0E069
:101B4000D0E00115110561F1D701ED91FC91008400
:101B5000F185E02DC7010995892BC1F0D701ED91E1
:101B6000FC910284F385E02DC70109958D3061F366
:101B70008A3019F4209741F32CC0F601EC0FFD1FB9
:101B800080832196C034D105F8F223C00150110999
:101B9000C1F261E070E080E090E00E948703D1CF65
:101BA000F601EC0FFD1F1082F70185858823A1F057
:101BB000209791F0B60181EC92E00E94920DC03422
:101BC000D10550F465E571E081EC92E00E94590E78
:101BD00003C000E010E0B5CFCE01DF91CF911F919F
:101BE0000F91FF90EF90DF90CF900895EF92FF92CA
:101BF0000F931F93CF93DF938C017B01C0E0D0E064
:101C0000F701EC0FFD1F6491662361F0D801ED919F
:101C1000FC910190F081E02DC8010995892B11F00C
:101C20002196EECFCE01DF91CF911F910F91FF90C2
:101C3000EF9008950F931F93CF93DF93EC010E94D1
:101C4000F60D8C0165E571E0CE010E94590E800F02
:101C5000911FDF91CF911F910F910895CF92DF9245
:101C6000EF92FF920F931F93CF93DF936C017A0152
:101C70008B01C0E0D0E0CE15DF0589F0D8016D9171
:101C80008D01D601ED91FC910190F081E02DC6010E
:101C90000995892B11F47E0102C02196ECCFC70172
:101CA000DF91CF911F910F91FF90EF90DF90CF9038
:101CB00008956115710579F0FB0101900020E9F7A5
:101CC0003197AF01461B570BDC01ED91FC9102806F
:101CD000F381E02D099480E090E00895CF93DF93A5
:101CE000CDB7DEB72C970FB6F894DEBF0FBECDBFD1
:101CF000789484B5826084BD84B5816084BD85B5E7
:101D0000826085BD85B5816085BD80916E008160F2
:101D100080936E0010928100809181008260809398
:101D2000810080918100816080938100809180009A
:101D30008160809380008091B10084608093B100C5
:101D40008091B00081608093B00080917A008460BF
:101D500080937A0080917A00826080937A008091EB
:101D60007A00816080937A0080917A008068809305
:101D70007A001092C1001092A2031092A303109255
:101D8000A4031092A50310926003109261031092B5
:101D90006203109263030E9453046B017C014B01A8
:101DA0005C0128EB820E2BE0921EA11CB11C0E944C
:101DB00053046C157D058E059F0528F08616970641
:101DC000A806B906A0F781EC92E09093A103809356
:101DD000A00340E051EE60E070E00E94F8070E942E
:101DE0005304609360037093610380936203909344
:101DF000630366E471E08091A0039091A1030E94C7
:101E0000920D0E9453046B017C014B015C013AE08E
:101E1000830E911CA11CB11C0E9453046C157D05FE
:101E20008E059F0528F086169706A806B906A0F726
:101E300011E01093740340E051EE60E070E081EC3B
:101E400092E00E94F80768E571E081EC92E00E9460
:101E5000410D68EA70E081EC92E00E94F60D10936B
:101E6000B30310920E048091040487FD0EC061E05C
:101E70000E94260361E0809104040E94F60261E062
:101E800070E080E090E00E94870380910B049091C5
:101E90000C04009739F040E855E260E070E00E94E1
:101EA000F8079CC08090090490900A04D4015B96C6
:101EB0001C921E925A9759961C921E9258975796AA
:101EC0001C921E9256978DE991E05D969C938E939D
:101ED0005C971C968C911C97863108F058C02DEBAE
:101EE00030E057963C932E9356972BE931E0599664
:101EF0003C932E9358972CE231E05B963C932E93C3
:101F00005A9790916800883050F021E08E3008F4A4
:101F100020E081E001C0880F2A95EAF701C084E043
:101F2000892B80936800F4019485983038F09E30B6
:101F300040F0963148F020E030E008C02DE630E077
:101F400005C02BE630E002C02CE630E0D401549608
:101F50003C932E935397983030F481E001C0880F62
:101F60009A95EAF70EC0292F30E09E3018F42850D9
:101F7000310902C02E50310981E001C0880F2A9535
:101F8000EAF7F401858B848D958D0197F1F7D401E3
:101F90005A968D919C915B97892B01F18091460215
:101FA0009091470288159905C9F0009711F00E9499
:101FB0002305F401868D8E7F868F10924502109244
:101FC000440290924702809246020388F489E02DF1
:101FD0009081D40155968C91892B80838091050442
:101FE000181644F461E00E94260361E08091050424
:101FF0000E94F6028091060418161CF460E00E940C
:1020000026038091AA039091AB03A091AC03B091F9
:10201000AD03E0910704F091080484839583A683BF
:10202000B78315E0D12EE12CF12C00E010E020E088
:1020300040E050E06AE770E086EA93E00E94100713
:1020400081112EC0DA94D110EECF62E370E080E00F
:1020500090E00E948703E091A603F091A703068415
:10206000F785E02D61E086EA93E0099562E370E090
:1020700080E090E00E94870386E0D82EDA94DD208D
:1020800051F1E12CF12C00E010E020E040E050E0C4
:1020900066E770E086EA93E00E941007882371F3F8
:1020A0000E9453046093F6037093F7038093F80340
:1020B0009093F90368EE73E080E090E00E9487035C
:1020C000E091A603F091A7030680F781E02D86EA50
:1020D00093E0099506C06CE771E081EC92E00E9404
:1020E000410D64EA70E081EC92E00E941A0E80E0FB
:1020F00093E09E838D8319821A821B821C82FE01CB
:1021000031967F018E010B5F1F4F21E040E050E0D0
:102110006EE770E086EA93E00E9410071092B30326
:102120001091B20311110BC0E091A603F091A70327
:102130000684F785E02D61E086EA93E0099562E880
:1021400070E086EA93E00E941A0E4091AA03509133
:10215000AB0364EB73E086EA93E00E94940D64ECB9
:1021600071E084EB93E00E94DD227C0186EA93E03B
:102170000E94790511110BC0E091A603F091A7030D
:102180000684F785E02D60E086EA93E00995F7FC88
:1021900033C068E870E081EC92E00E941A0EF09083
:1021A000B203F1100BC0E091A603F091A7030684DF
:1021B000F785E02D61E086EA93E009956AEC71E02D
:1021C00086EA93E00E94920D00E010E020E030E00B
:1021D00040E060E070E086EA93E00E94CA05F110FA
:1021E0000BC0E091A603F091A7030684F785E02DCC
:1021F00060E086EA93E0099560E086EA93E00E9459
:1022000051078091340487FD08C061E00E942603D5
:1022100060E0809134040E94F60281E080932F04F4
:102220006CED71E081EC92E00E94410D109251043E
:1022300010925204109253041092540410924404C9
:102240001092430420E040E060E080E00E94740BC4
:1022500010926F0210926E0289E190E090936702F3
:10226000809366021092650210926D0210926C02C9
:1022700010926B021092680210924802109264024F
:102280001092630288248394912C212C312C2101FB
:102290002A94B2E06B2E712C0E945304672B682B9A
:1022A000692B41F40E945304623071058105910548
:1022B00008F419C10E94530460937402709375026C
:1022C00080937602909377020091700210917102D0
:1022D0002091720230917302601771078207930791
:1022E00040F4609370027093710280937202909335
:1022F000730200917002109171022091720230916C
:1023000073026B017C01C01AD10AE20AF30A970139
:1023100086010A3F11052105310508F4E4C06093E8
:10232000700270937102809372029093730224EF93
:1023300031E040E050E020936C0330936D03409314
:102340006E0350936F0310927003109271031092FA
:102350007203109273038091640390916503A091BE
:102360006603B09167038093680390936903A09319
:102370006A03B0936B030E945304609364037093E9
:10238000650380936603909367030E9453046093F0
:1023900060037093610380936203909363030E94D0
:1023A00053046B017C016AEF71E08091A00390916E
:1023B000A1030E94920D2AE041E050E060E070E04D
:1023C0008091A0039091A1030E94F80C61E072E05B
:1023D0008091A0039091A1030E94920D2AE0B70181
:1023E000A6018091A0039091A1030E94F80C63E0E4
:1023F00072E08091A0039091A1030E94920D8091C0
:10240000640390916503A0916603B0916703B701DF
:10241000A601481B590B6A0B7B0B2AE08091A00395
:102420009091A1030E94F80C63E072E08091A003F8
:102430009091A1030E94920D409164035091650315
:1024400060916603709167038091680390916903BE
:10245000A0916A03B0916B03481B590B6A0B7B0B6D
:102460002AE08091A0039091A1030E94F80C65E0FE
:1024700072E08091A0039091A1030E94920D0E94AE
:102480005304AB01BC012AE08091A0039091A10309
:102490000E94F80C67E072E08091A0039091A10384
:1024A0000E94410D0E9453046B017C01AB01BC01F1
:1024B0004E5F5F4F6F4F7F4F4F83588769877A8793
:1024C0000E9453046C157D058E059F0510F00C9439
:1024D000411B0E94530460936403709365038093CF
:1024E00066039093670381EC92E00E94FB0018164C
:1024F00019060CF04BC06EE072E081EC92E00E9495
:10250000410D68E172E081EC92E00E94410D81ECA6
:1025100092E00E94D900813439F40E947F0C7093BC
:102520006F0260936E02EDCF823529F40E947F0C1A
:1025300060936D02E6CF873429F40E947F0C60938C
:102540006C02DFCF823429F40E947F0C60936B020F
:10255000D8CF833539F40E947F0C70936A02609360
:102560006902CFCF843429F40E947F0C6093680203
:10257000C8CF843531F68091690290916A029093B8
:1025800067028093660281E08093650211E086EA2B
:1025900093E00E94C103892B09F47EC086EA93E090
:1025A0000E948C022091630230916402F901E75B82
:1025B000FD4F80832F5F3F4F30936402209363026F
:1025C0008435910521F761E470E089E492E00E948E
:1025D000D222009739F001960E94641E90936F02F8
:1025E00080936E0262E570E089E492E00E94D2225C
:1025F000009729F001960E94641E80936D0267E4A3
:1026000070E089E492E00E94D222009729F00196BE
:102610000E94641E80936C0262E470E089E492E0A0
:102620000E94D222009729F001960E94641E809396
:102630006B0263E570E089E492E00E94D222009789
:1026400039F001960E94641E90936A028093690299
:1026500064E470E089E492E00E94D222009729F0BD
:1026600001960E94641E80936802E9E4F2E03FEF65
:10267000319342E0E336F407D1F7109264021092EE
:1026800063028091690290916A029093670280933D
:102690006602109365027BCF80916502882309F45E
:1026A000C7C1E0916E02F0916F02E730F10508F0CA
:1026B000B3C1EC5CFF4F0C948621209148024091FD
:1026C0006B0260916C0280916D0280935104609363
:1026D00052044093530420935404109244041092E3
:1026E00043040E94740B9EC1909244048092430460
:1026F00010924F045FEF50935004109246041092D2
:1027000045041092480410924704109266041092F7
:102710006704109268041092690410925104109298
:102720005204109253047FC0709244046092430498
:1027300010924F046FEF6093500410924A0410926D
:102740004904609351041092520410925304109261
:102750005404109246041092450464C180916802AA
:10276000A3E0B0E0B0934404A09343041092460465
:1027700010924504813029F0709248046092470419
:1027800006C0E3E0F0E0F0934804E09347041092C1
:10279000560410924F041092500410926604109246
:1027A0006704109268041092690410925104109208
:1027B00052041092530410925F041092600410921D
:1027C00061041092620410926304109264041092E7
:1027D000650400E020E040E06FEF80E090E00E94C0
:1027E0001F09D2C08091480290916B0220916C0227
:1027F00030916D02E4E0CE2ED12CD0924404C092F0
:10280000430410924F04311111C021110FC09111D6
:102810000DC081110BC01092510410925204DD249E
:10282000DA94D092530410925404FCC030935104B3
:10283000209352049093530480935404F3C075E0A2
:10284000E72EF12CF0924404E092430423E030E0C0
:10285000309348042093470485E0809355041092F8
:102860004F043FEF309350041092510410925204E1
:102870001092530410925F0410926004109261044D
:102880001092620410926304109264041092650422
:1028900080E480937C0080917A00806480937A0049
:1028A00080917A0086FDFCCF60917800809179005C
:1028B00070E0782B072E000C880B990B61157105C1
:1028C0008105910511F00E944A1D6091550470E048
:1028D000CB0181519F4F0E94722160935704A12C1C
:1028E000B12C8091570490E0A816B9060CF04CC0AA
:1028F0000E94451DA20191010E94EC1F60935104AA
:102900000E94451DA20191010E94EC1F6093520498
:102910000E94451DA20191010E94EC1F162F609399
:1029200053045091520430915104C0905A04D12C58
:1029300080915504B601680F711D613F710514F453
:102940007B0103C060EFE62EF12CEC14FD0478F05F
:1029500000E0212F452F632FC6013C875B870E9433
:102960001F097FEFC71AD70A5B853C85EECF0E940F
:102970005F089091550480915A04890F80935A04FE
:102980008FEFA81AB80AADCF0E945F084BC0A6E02F
:10299000B0E0B0934404A093430490924804809222
:1029A00047048AE0809355041092560410924F0415
:1029B00010925004109266041092670410926804FA
:1029C0001092690410926A041092510410925204F9
:1029D0001092530410925F041092600410926104EC
:1029E00088E180935704C12CD12C60E08C2D0E948B
:1029F000120C0091540420915304409152046091B0
:102A00005104C6010E941F09BFEFCB1ADB0AE0EF99
:102A1000CE16D10451F706C062E272E081EC92E07A
:102A20000E94410D10926F0210926E021092650288
:102A300000916602109167020E945304C0904B04FB
:102A4000D0904C04E0904D04F0904E04AB01BC01DA
:102A50004C195D096E097F09C801A0E0B0E0481774
:102A600059076A077B0708F408C60E94530460935D
:102A70004B0470934C0480934D0490934E04E0906B
:102A80004304F0904404F3E0EF16F10409F442C16A
:102A900054F431E0E316F10499F042E0E416F10455
:102AA00009F4D1C0EAC555E0E516F10409F490C275
:102AB0000CF45EC276E0E716F10409F459C3DDC5F3
:102AC00010914F04612F70E080E090E00E949B1E07
:102AD00020E030E04FE753E40E94D1205B016C011D
:102AE000609366047093670480936804909369040C
:102AF00020914504309146042130310591F1223076
:102B0000310509F457C0232B09F0B7C520914704BC
:102B1000309148042115310591F420915004121789
:102B200020F4E12C00E02FEF54C0121311C011501B
:102B300010934F04909248048092470479C021304A
:102B4000310531F4112321F0E12C00E02FEF5DC0BD
:102B500010924804109247049092460480924504D3
:102B600067C040914704509148044115510589F4CC
:102B700040915004141718F4E12C0FEF29C01413DE
:102B800010C0115010934F04309348042093470411
:102B90004FC04130510529F4112319F0E12C0FEFFA
:102BA00033C0109248041092470470924604609219
:102BB00045043EC020914704309148042115310559
:102BC000D9F420915004121768F4EE24EA9400E03E
:102BD00020E040E060E080E00E94D50A80914F0450
:102BE0008F5F1BC012131CC0115010934F04F09242
:102BF0004804E09247041CC02130310589F41123B8
:102C000079F0EE24EA9400E020E040E060E080E02B
:102C10000E94D50A80914F04815080934F0408C0D0
:102C200010924804109247041092460410924504F2
:102C300020915404409153046091520480915104B6
:102C40000E94740B1AC560914F0470E080E090E020
:102C50000E949B1E20E030E04FE753E40E94D12009
:102C60005B016C0160936604709367048093680451
:102C7000909369048091450490914604009739F43B
:102C8000E12C0FEF20E040E060E08FEF0FC00197F4
:102C900039F4EE24EA9400E020E040E06FEF05C054
:102CA000E12C00E02FEF4FEF60E080E00E94D50ABA
:102CB0002091540440915304609152048091510436
:102CC0000E94740B209145043091460480914F047A
:102CD0002115310541F48F3F09F076C190924604E9
:102CE000809245046EC12130310541F48F3F09F0D7
:102CF0006BC1709246046092450463C12230310575
:102D000009F062C18F3F09F05FC110924604109232
:102D1000450457C16091500470E080E090E00E944B
:102D20009B1E20E030E048E452E40E94D1205B0189
:102D30006C016093660470936704809368049093B9
:102D4000690480914704909148048230910521F0F4
:102D5000039709F46DC0D9C0809145049091460451
:102D6000009739F4E12C0FEF20E040E060E08FEFB6
:102D70000FC0019739F4EE24EA9400E020E040E02F
:102D80006FEF05C0E12C00E02FEF4FEF60E080E037
:102D90000E94D50A0091540420915304409152049A
:102DA0006091510480E090E00E941F0900E010E073
:102DB0000115110589F480E090E00E94B409609348
:102DC0006204709363048093640490936504609339
:102DD0005304709352040AC080915F04809353049B
:102DE0008091600480935204809161048093510427
:102DF0000F5F1F4FC8010E94B40960936204709373
:102E00006304809364049093650460935F047093FB
:102E100060048093610420915304409152046091B6
:102E20005104C8010E946E09003F110509F66DC0EA
:102E30008091450490914604009739F4E12C0FEFFE
:102E400020E040E060E08FEF0FC0019739F4EE24FE
:102E5000EA9400E020E040E06FEF05C0E12C00E0E4
:102E60002FEF4FEF60E080E00E94D50A00915404FC
:102E70002091530440915204609151048FEE90E0F0
:102E80000E941F090FEE10E00F3E110589F48FEE2E
:102E900090E00E94B409609362047093630480938D
:102EA00064049093650460935304709352040AC0C1
:102EB00080915F0480935304809160048093520456
:102EC000809161048093510401501109C8010E944E
:102ED000B4096093620470936304809364049093D4
:102EE000650460935F047093600480936104209193
:102EF00053044091520460915104C8010E946E092C
:102F00000F3F8FEF180709F0BFCF20E030E040E817
:102F10005FE360916604709167048091680490910A
:102F200069040E94961E811116C0809145049091FB
:102F30004604009729F490924604809245040BC001
:102F4000019729F4709246046092450404C01092DF
:102F50004604109245040E945F0880915004823319
:102F600019F41092500489C38F5F8093500485C375
:102F7000C12CD12C80914F04D601A80FB11DCD01D9
:102F800065E070E00E94722100E0892B39F4209105
:102F90005304409152046091510403C020E040E08A
:102FA00060E0C6010E941F09BFEFCB1ADB0AE0EF09
:102FB000CE16D104F9F60E945F0880914F048F3F2E
:102FC00019F410924F0459C38F5F80934F0455C377
:102FD00080914704909148048230910521F0039735
:102FE00009F463C048C3E0E0F0E08F010F5F1F4FBA
:102FF000309799F480E090E00E94B40960936204F5
:103000007093630480936404909365046093530405
:10301000709352048093510429C020915F0420933F
:1030200053044091600440935204E0906104E092A4
:103030005104EF3EF105D1F480E090E02B874C87FE
:103040000E94B409609362047093630480936404E3
:103050009093650460935F047093600480936104AF
:103060002B854C856E2D80E090E018C0C8010E9431
:10307000B409609362047093630480936404909332
:10308000650460935F0470936004809361042091F1
:1030900053044091520460915104C8010E946E098A
:1030A000F801003F110509F0A0CFEFEEF0E08F012D
:1030B00001501109EF3EF10599F48FEE90E00E9466
:1030C000B4096093620470936304809364049093E2
:1030D000650460935304709352048093510428C094
:1030E00020915F0420935304409160044093520464
:1030F000E0906104E0925104EF2BD1F48FEE90E068
:103100002B874C870E94B409609362047093630418
:10311000809364049093650460935F0470936004EB
:10312000809361042B854C856E2D8FEE90E018C046
:10313000C8010E94B4096093620470936304809391
:1031400064049093650460935F04709360048093BB
:103150006104209153044091520460915104C801CC
:103160000E946E09F8010F3F1F4F09F0A0CF83C2E4
:103170006091500470E080E090E00E949B1E20E08F
:1031800030E04FE753E40E94D120609366047093CF
:1031900067048093680490936904809156048111B8
:1031A0001FC161E085E00E94120C60935B04709384
:1031B0005C0480935D0490935E0460935F04C72E6B
:1031C000D82EE92EFF24C09260049C014427552785
:1031D0002F83388749875A872093610400916604BA
:1031E000109167042091680430916904E0914F04C4
:1031F000A62EEF8040E050E06091550482E38E0FF0
:103200000E94950B61E084E00E94120C60935B04C5
:1032100070935C0480935D0490935E0460935F04FC
:10322000C72ED82EE92EFF24C09260049C014427AB
:1032300055272F83388749875A8720936104009147
:103240006604109167042091680430916904E0914C
:103250004F04A62EEF8041E050E06091550488E2D3
:103260008E0F0E94950B61E083E00E94120C609328
:103270005B0470935C0480935D0490935E046093A0
:103280005F04C72ED82EE92EFF24C09260049C0153
:10329000442755272F83388749875A87209361040D
:1032A00000916604109167042091680430916904CC
:1032B000E0914F04A62EEF8040E050E0609155046D
:1032C0008EE18E0F0E94950B61E082E00E94120C4D
:1032D00060935B0470935C0480935D0490935E0440
:1032E00060935F04C72ED82EE92EFF24C09260049D
:1032F0009C01442755272F83388749875A87209375
:103300006104009166041091670420916804309173
:103310006904E0914F04A62EEF8041E050E06091F7
:10332000550484E18E0F0E94950B61E081E00E94BC
:10333000120C60935B0470935C0480935D04909323
:103340005E0460935F04C72ED82EE92EFF24C0923E
:1033500060049C01442755272F83388749875A8763
:103360002093610400916604109167042091680421
:1033700030916904E0914F04A62EEF8040E050E0C8
:10338000609155048AE08E0F0E94950B61E080E009
:103390000E94120C60935B0470935C0480935D0444
:1033A00090935E0460935F04C72ED82EE92EFF240D
:1033B000C09260049C01442755272F833887498792
:1033C0005A8720936104009166041091670420914C
:1033D000680430916904A62EEF8041E050E021C1DD
:1033E000813009F024C161E085E00E94120C6093F5
:1033F0005B0470935C0480935D0490935E0460931F
:103400005F04C72ED82EE92EFF24C09260049C01D1
:10341000442755272F83388749875A87209361048B
:10342000009166041091670420916804309169044A
:10343000E0914F04A62EEF8041E050E060915504EA
:1034400082E38E0F0E94950B61E084E00E94120CD3
:1034500060935B0470935C0480935D0490935E04BE
:1034600060935F04C72ED82EE92EFF24C09260041B
:103470009C01442755272F83388749875A872093F3
:1034800061040091660410916704209168043091F2
:103490006904E0914F04A62EEF8040E050E0609177
:1034A000550488E28E0F0E94950B61E083E00E9434
:1034B000120C60935B0470935C0480935D049093A2
:1034C0005E0460935F04C72ED82EE92EFF24C092BD
:1034D00060049C01442755272F83388749875A87E2
:1034E00020936104009166041091670420916804A0
:1034F00030916904E0914F04A62EEF8041E050E046
:10350000609155048EE18E0F0E94950B61E082E080
:103510000E94120C60935B0470935C0480935D04C2
:1035200090935E0460935F04C72ED82EE92EFF248B
:10353000C09260049C01442755272F833887498710
:103540005A872093610400916604109167042091CA
:10355000680430916904E0914F04A62EEF8040E0AA
:1035600050E06091550484E18E0F0E94950B61E05C
:1035700081E00E94120C60935B0470935C04809362
:103580005D0490935E0460935F04C72ED82EE92EED
:10359000FF24C09260049C01442755272F8338875D
:1035A00049875A872093610400916604109167044B
:1035B0002091680430916904E0914F04A62EEF80B9
:1035C00041E050E0609155048AE08E0F0E94950B17
:1035D00061E080E00E94120C60935B0470935C04D5
:1035E00080935D0490935E0460935F04C72ED82E91
:1035F000E92EFF24C09260049C01442755272F83A5
:10360000388749875A872093610400916604109196
:1036100067042091680430916904A62EEF8040E091
:1036200050E06091550480914F040E94950B20E07A
:1036300030E040E85FE36091660470916704809138
:103640006804909169040E94961E81110AC08091BD
:103650005604813019F41092560403C08F5F809392
:103660005604809150048F3F19F41092500403C007
:103670008F5F809350040E945F080E949B010C940E
:103680004C112F81388549855A85261737074807F9
:10369000590710F00C9460120C94691286EA93E0BA
:1036A0000E94390588E391E09093100480930F0401
:1036B0008FE094E00E9423058091360490913704B6
:1036C000009711F00E9435228091340487FD03C0D9
:1036D00060E00C9426030895CF93DF931092C40208
:1036E0001092C30288EE93E0A0E0B0E08093C502A0
:1036F0009093C602A093C702B093C8028EE091E0F7
:103700009093C2028093C10285EC90E09093CE0228
:103710008093CD0284EC90E09093D0028093CF020E
:1037200080EC90E09093D2028093D10281EC90E003
:103730009093D4028093D30282EC90E09093D602CF
:103740008093D50286EC90E09093D8028093D702C4
:103750001092DA021092DB021092DC021092DD026B
:10376000109264031092650310926603109267032F
:10377000109268031092690310926A0310926B030F
:1037800010926C0310926D0310926E0310926F03EF
:1037900010927003109271031092720310927303CF
:1037A00080E580936B0410926C0410922F041092A9
:1037B000350410923C0410923D0410923E04109285
:1037C0003F0481E080933B048093380410923904D5
:1037D00092E090933A0480932E04C0EDD2E0D0930F
:1037E0003304C093320480ED92E00E94A0219093B4
:1037F000370480933604009769F0FC019E01119212
:1038000021503040E1F780EF90E0909331048093B5
:10381000300408C010923304109232041092310424
:103820001092300486E08093340480912F04882322
:1038300041F061E086E00E94260360E086E00E949D
:10384000F602EDE2F1E0E491F0E0EE0FFF1FE35E3F
:10385000FE4F859194919093410480934004EFE052
:10386000F1E0E491E093420485E0809358041092E3
:1038700012041092110488EE93E0A0E0B0E080936F
:10388000130490931404A0931504B093160488E3D2
:1038900091E09093100480930F04109226041092EC
:1038A0002504109228041092270410922A041092E2
:1038B000290410922C0410922B0460912D046E7F29
:1038C0006D7F60932D046695617081E0682789E0C3
:1038D0000E94F60261E089E00E942603E2E1F1E045
:1038E000E491E0931F04E0E3F1E0E491F0E0EE0FF7
:1038F000FF1FE35EFE4F8591949190932104809386
:10390000200460E08AE00E94260380912D0481FD5E
:1039100004C061E08AE00E94F6028FE094E02AE0B1
:1039200020931B04E3E1F1E0E491E0931C04E1E364
:10393000F1E0E491F0E0EE0FFF1FE150FF4F259121
:10394000349130931E0420931D041092A903109209
:10395000A80321E02093B2031092B3034AEF50E092
:1039600060E070E04093AA035093AB036093AC0314
:103970007093AD031092F6031092F7031092F803C0
:103980001092F9031092FB031092FA031092FD03B8
:103990001092FC031092FF031092FE031092010498
:1039A00010920004109203041092020420E231E00D
:1039B0003093A7032093A6032FEF209304042BE05A
:1039C0002093050428E02093060422E02093F503C9
:1039D00010920C0410920B0490930A048093090433
:1039E0009093080480930704DF91CF9108958F92FC
:1039F0009F92AF92BF92CF92DF92EF92FF92CF93BE
:103A0000DF93EC01688179818A819B816115710561
:103A10008105910521F464E279ED8BE597E02DE1D4
:103A200033EF41E050E00E94EC1F49015A019B0135
:103A3000AC01A7EAB1E40E940B206B017C01ACEE63
:103A4000B4EFA50194010E941920DC01CB018C0D7B
:103A50009D1DAE1DBF1DB7FF03C00197A109B04852
:103A600088839983AA83BB83BC01CD019F77DF91B3
:103A7000CF91FF90EF90DF90CF90BF90AF909F904D
:103A80008F9008950E94F71C089580E091E00E94B5
:103A9000F71C089560930001709301018093020167
:103AA000909303010895A0E0B0E0E9E5FDE10C94F6
:103AB0001E205C016B017A016115710519F0FB0193
:103AC00091838083E114F10429F0C7010297839761
:103AD00008F0F1C0E5012196F5011081812F90E0F9
:103AE0000E94821E892B11F05E01F4CF1D3229F451
:103AF0002196F501118101E007C01B3221F4E50197
:103B00002296F501118100E0E114F10459F1F0E190
:103B1000EF16F10461F41033E1F488818F7D88356C
:103B200069F519812296026070E1E72EF12C88E098
:103B3000E816F10439F12CF4F2E0EF16F104C9F1C2
:103B40002AC08AE0E816F10479F0E0E1EE16F1040B
:103B500011F550E1E52EF12C812C912CA12C68E07F
:103B6000B62E2CC01033C9F23AE0E32EF12C4CEC07
:103B7000842E982CA82C4CE0B42E20C010E3E11425
:103B8000F104A9F698E0E92EF12C812C912CA12CBE
:103B900020E1B22E13C060E070E080E090E8970171
:103BA0000F2C000C440B550B0E94CA1F49015A01EF
:103BB00005C0812C912CA12C80E4B82E60E020E07F
:103BC00030E0A90127010F2C000C660877081E01C0
:103BD000E0EDE10FEA3060F08FEB810F8A3110F4F5
:103BE000E9EC05C08FE9810F8A3128F5E9EAE10F98
:103BF0008E2F90E08E159F05F4F467FD18C0821695
:103C00009306A406B50690F0C301B2010E94BA1F44
:103C10009B01AC012E0F311D411D511D213031057D
:103C20004105F0E85F0710F461E001C06FEF2196F5
:103C3000F1011081CCCF802F8170C114D10471F0BB
:103C4000662329F02197F601D183C08307C001FFC5
:103C500019C02297F601D183C08314C067FF12C038
:103C6000811105C02FEF3FEF4FEF5FE704C020E069
:103C700030E040E050E882E290E090936E04809360
:103C80006D0416C0882341F05095409530952195DC
:103C90003F4F4F4F5F4F0CC057FF0AC082E290E08A
:103CA00090936E0480936D042FEF3FEF4FEF5FE72B
:103CB000B901CA0104C060E070E080E090E0CDB7D7
:103CC000DEB7E2E10C943A20FC0188279927E894BA
:103CD00021912032E9F3293010F02E30C8F32B3235
:103CE00041F02D3239F4689404C00E948B1E820F7B
:103CF000911D219120532A30C0F31EF49095819597
:103D00009F4F089591110C94931E803219F08950A1
:103D10008550C8F708957AE0979F902D879F802D52
:103D2000910D112408959927882708950E94D81E7F
:103D300008F481E00895E89409C097FB3EF490955B
:103D40008095709561957F4F8F4F9F4F9923A9F074
:103D5000F92F96E9BB279395F69587957795679503
:103D6000B795F111F8CFFAF4BB0F11F460FF1BC047
:103D70006F5F7F4F8F4F9F4F16C0882311F096E9DA
:103D800011C0772321F09EE8872F762F05C0662388
:103D900071F096E8862F70E060E02AF09A95660F41
:103DA000771F881FDAF7880F9695879597F90895FA
:103DB000990F0008550FAA0BE0E8FEEF161617063C
:103DC000E807F907C0F012161306E407F50798F0A4
:103DD000621B730B840B950B39F40A2661F0232BBD
:103DE000242B252B21F408950A2609F4A140A69539
:103DF0008FEF811D811D08950E940F1F0C94801F5D
:103E00000E94721F38F00E94791F20F0952311F054
:103E10000C94691F0C946F1F11240C94B41F0E9402
:103E2000911F70F3959FC1F3950F50E0551F629F4E
:103E3000F001729FBB27F00DB11D639FAA27F00D03
:103E4000B11DAA1F649F6627B00DA11D661F829F2A
:103E50002227B00DA11D621F739FB00DA11D621F0F
:103E6000839FA00D611D221F749F3327A00D611D2C
:103E7000231F849F600D211D822F762F6A2F11240E
:103E80009F5750409AF0F1F088234AF0EE0FFF1F41
:103E9000BB1F661F771F881F91505040A9F79E3F98
:103EA000510580F00C94691F0C94B41F5F3FE4F33C
:103EB000983ED4F3869577956795B795F795E795EE
:103EC0009F5FC1F7FE2B880F911D9695879597F9F7
:103ED000089597F99F6780E870E060E008959FEF8C
:103EE00080EC089500240A94161617061806090691
:103EF000089500240A941216130614060506089560
:103F0000092E0394000C11F4882352F0BB0F40F4E7
:103F1000BF2B11F460FF04C06F5F7F4F8F4F9F4F27
:103F2000089557FD9058440F551F59F05F3F71F0A9
:103F30004795880F97FB991F61F09F3F79F0879510
:103F40000895121613061406551FF2CF4695F1DF99
:103F500008C0161617061806991FF1CF8695710529
:103F6000610508940895E894BB2766277727CB015D
:103F700097F90895DB018F939F930E940B20BF91C7
:103F8000AF91A29F800D911DA39F900DB29F900DA8
:103F900011240895A1E21A2EAA1BBB1BFD010DC01E
:103FA000AA1FBB1FEE1FFF1FA217B307E407F507E9
:103FB00020F0A21BB30BE40BF50B661F771F881FC5
:103FC000991F1A9469F760957095809590959B015B
:103FD000AC01BD01CF010895052E97FB1EF400949E
:103FE0000E94032057FD07D00E94CA1F07FC03D080
:103FF0004EF40C94032050954095309521953F4FF9
:104000004F4F5F4F089590958095709561957F4FC4
:104010008F4F9F4F08950E945520A59F900DB49FEC
:10402000900DA49F800D911D11240895B7FF0C944D
:104030000B200E940B20821B930B08952F923F921E
:104040004F925F926F927F928F929F92AF92BF92A8
:10405000CF92DF92EF92FF920F931F93CF93DF9354
:10406000CDB7DEB7CA1BDB0B0FB6F894DEBF0FBEB1
:10407000CDBF09942A88398848885F846E847D84FE
:104080008C849B84AA84B984C884DF80EE80FD8000
:104090000C811B81AA81B981CE0FD11D0FB6F89476
:1040A000DEBF0FBECDBFED010895A29FB001B39F4B
:1040B000C001A39F700D811D1124911DB29F700D31
:1040C000811D1124911D08955058BB27AA270E94D5
:1040D0007C200C94801F0E94721F38F00E94791F70
:1040E00020F039F49F3F19F426F40C946F1F0EF45E
:1040F000E095E7FB0C94691FE92F0E94911F58F38C
:10410000BA17620773078407950720F079F4A6F5BC
:104110000C94B31F0EF4E0950B2EBA2FA02D0B01BB
:10412000B90190010C01CA01A0011124FF27591BFC
:1041300099F0593F50F4503E68F11A16F040A22F02
:10414000232F342F4427585FF3CF46953795279573
:10415000A795F0405395C9F77EF41F16BA0B620B72
:10416000730B840BBAF09150A1F0FF0FBB1F661FB9
:10417000771F881FC2F70EC0BA0F621F731F841FFC
:1041800048F4879577956795B795F7959E3F08F022
:10419000B0CF9395880F08F09927EE0F97958795E4
:1041A00008950E94E5200C94801F0E94791F58F00A
:1041B0000E94721F40F029F45F3F29F00C94691FA0
:1041C00051110C94B41F0C946F1F0E94911F68F33F
:1041D0009923B1F3552391F3951B550BBB27AA27C0
:1041E00062177307840738F09F5F5F4F220F331FFA
:1041F000441FAA1FA9F335D00E2E3AF0E0E832D0C2
:1042000091505040E695001CCAF72BD0FE2F29D0C4
:10421000660F771F881FBB1F261737074807AB0796
:10422000B0E809F0BB0B802DBF01FF2793585F4F0B
:104230003AF09E3F510578F00C94691F0C94B41F1E
:104240005F3FE4F3983ED4F3869577956795B795ED
:10425000F7959F5FC9F7880F911D9695879597F9F8
:104260000895E1E0660F771F881FBB1F6217730771
:104270008407BA0720F0621B730B840BBA0BEE1F86
:1042800088F7E09508950E94991F88F09F5798F04D
:10429000B92F9927B751B0F0E1F0660F771F881F4B
:1042A000991F1AF0BA95C9F714C0B13091F00E9465
:1042B000B31FB1E008950C94B31F672F782F8827A0
:1042C000B85F39F0B93FCCF3869577956795B3958C
:1042D000D9F73EF490958095709561957F4F8F4FFB
:1042E0009F4F089597FB072E16F4009407D077FD93
:1042F00009D00E948C2107FC05D03EF49095819551
:104300009F4F0895709561957F4F0895EE0FFF1FA1
:104310000590F491E02D0994AA1BBB1B51E107C045
:10432000AA1FBB1FA617B70710F0A61BB70B881F45
:10433000991F5A95A9F780959095BC01CD010895D4
:10434000CF93DF938230910510F482E090E0E0910A
:104350007104F091720420E030E0C0E0D0E03097CA
:1043600011F14081518148175907C0F0481759078A
:1043700061F482819381209719F09B838A832BC0FB
:10438000909372048093710426C02115310519F0B1
:104390004217530718F49A01BE01DF01EF010280B2
:1043A000F381E02DDCCF2115310509F1281B390BF4
:1043B0002430310590F412968D919C9113976115DC
:1043C000710521F0FB019383828304C090937204F2
:1043D00080937104FD01329644C0FD01E20FF31F8A
:1043E00081939193225031092D933C933AC02091AF
:1043F0006F0430917004232B41F420910601309119
:1044000007013093700420936F04209104013091D0
:1044100005012115310541F42DB73EB74091080142
:1044200050910901241B350BE0916F04F091700449
:10443000E217F307A0F42E1B3F0B2817390778F07B
:10444000AC014E5F5F4F2417350748F04E0F5F1FDA
:104450005093700440936F048193919302C0E0E005
:10446000F0E0CF01DF91CF9108950F931F93CF9389
:10447000DF93009709F48CC0FC01329713821282FB
:1044800000917104109172040115110581F42081CD
:104490003181820F931F20916F043091700428178F
:1044A000390779F5F0937004E0936F0471C0D80177
:1044B00040E050E0AE17BF0750F412962D913C91AA
:1044C0001397AD012115310509F1D901F3CF9D01F4
:1044D000DA013383228360817181860F971F8217EF
:1044E000930769F4EC0128813981260F371F2E5F6D
:1044F0003F4F318320838A819B8193838283452B25
:1045000029F4F0937204E093710442C01396FC9373
:10451000EE931297ED01499159919E01240F351F99
:10452000E217F30771F480819181840F951F029641
:1045300011969C938E938281938113969C938E9374
:104540001297E0E0F0E0D80112968D919C911397BC
:10455000009719F0F8018C01F6CF8D919C9198018C
:104560002E5F3F4F820F931F20916F043091700494
:104570002817390769F4309729F4109272041092C1
:10458000710402C0138212821093700400936F04AE
:10459000DF91CF911F910F91089581E090E0F89401
:1045A0000C94ED22FC018191861721F08823D9F724
:1045B000992708953197CF010895FB01DC018D9172
:1045C000019080190110D9F3990B0895FB01DC01CA
:1045D00001900D920020E1F7089510E0CFE9D0E0BE
:1045E00004C0FE010E9486212196C03AD107C9F776
:0445F000F894FFCF6D
:1045F400010000000000730480000000000032018C
:104604002E0ECA007901FB00D900ED000000000065
:10461400F6032E0E99027402C1038C028002510724
:1046240039056F0500000000E7012E0E9902E6012E
:104634003B025302CE01564D4450565F317C315FEC
:10464400564D4450560D0A0053657269616C2070D2
:104654006F727420697320736574207570206F6E97
:104664002061726469756E6F2E2E2E00436F756C17
:10467400646E27742066696E6420426C7565667288
:104684007569742C206D616B652073757265206982
:1046940074277320696E20436F4D6D616E44206DE5
:1046A4006F6465202620636865636B20776972698F
:1046B4006E673F00302E362E360041542B48574D3E
:1046C4006F64654C45443D4D4F44450053746172DD
:1046D40074696E672064656661756C7420616E69C7
:1046E4006D6174696F6E2E2E2E00564D4450455FD9
:1046F400003A323A007C005F564D44504500496E02
:10470400206C6F6F70203100496E206C6F6F7020C9
:104714003200496E76616C69642076616C7565203F
:1047240072656369657665642E004F4B004552528D
:044734004F520000E0
:00000001FF
