:100000000C9480000C94A8000C94A8000C94A800F8
:100010000C94A8000C94A8000C94A8000C94A800C0
:100020000C94A8000C94A8000C94A8000C94A800B0
:100030000C94A8000C94A8000C94A8000C94A800A0
:100040000C946F060C94A8000C9496050C94700503
:100050000C94A8000C94A8000C94A8000C94A80080
:100060000C94A8000C94A800F00B3D0C4D0C710CE6
:10007000C60C3D0D4E0D750DAC0DCB0D050E150EC0
:10008000410E6F0EA90EEF0EA30FAD0FBE0F05A808
:100090004CCDB2D44EB93836A9020C50B9918688ED
:1000A000083CA6AAAA2ABE000000803F0000000863
:1000B000000201000003040700000000000000002F
:1000C00001020408102040800102040810200102EF
:1000D0000408102000000000250028002B00040464
:1000E00004040404040402020202020203030303E0
:1000F000030300000000240027002A00C21161123F
:1001000011241FBECFEFD8E0DEBFCDBF11E0A0E0CD
:10011000B1E0E6EDFEE202C005900D92A237B10714
:10012000D9F722E0A2E7B1E001C01D92A037B207E3
:10013000E1F710E0CFE7D0E004C02197FE010E9474
:100140002616CE37D107C9F70E94F70A0C945E171E
:100150000C94000090E0FC01E455FF4F2491FC0159
:10016000E054FF4F3491FC01E252FF4FE491EE2343
:10017000B9F1222339F1233091F038F42130A9F07C
:10018000223001F584B58F7D12C0273091F02830E0
:10019000A1F02430B9F4809180008F7D03C080915C
:1001A00080008F77809380000DC084B58F7784BDE9
:1001B00009C08091B0008F7703C08091B0008F7D1F
:1001C0008093B000F0E0EE0FFF1FEC52FF4FA591BF
:1001D000B4918FB7F894EC9130953E233C938FBF48
:1001E00008950F931F93CF93DF93CDB7DEB7299771
:1001F0000FB6F894DEBF0FBECDBF0E94040600917B
:10020000590210915A0220915B0230915C02DC018C
:10021000CB01801B910BA20BB30B8C329140A1053B
:10022000B10558F3F89480914F02909150029A834F
:100230008983E0915302F0915402DF01119680818D
:10024000898790914B02E0915D02F0915E0280916E
:100250005F02992309F42EC09081982B9887908192
:10026000809589238F838F818C8388E08B83588549
:100270006F8149853B812C8189819A81508347FD1B
:10028000252F3A952083262F39F0441F00C0000007
:100290006083000000C0F2CF38E04D916083000021
:1002A000019761F7F0935E02E0935D0249873B831B
:1002B0002C8338C09081982B9887908180958923D2
:1002C0008F838F818E8388E08D8358856F814985E8
:1002D0003D812E8189819A81508347FD252F00C061
:1002E00000C0208300C000C000C000C000C0608308
:1002F0000000262F3A9541F0441F000000C000C0C6
:1003000000C000C000C0E8CF38E04D9100C060835D
:1003100000C0019709F7F0935E02E0935D02498700
:100320003D832E839A83898378940E940406609388
:10033000590270935A0280935B0290935C02299653
:100340000FB6F894DEBF0FBECDBFDF91CF911F91E6
:100350000F910895009769F0FC0101900020E9F7E2
:100360003197AF01481B590BBC018EEA91E00C9408
:10037000E90780E090E008958F929F92AF92BF923C
:10038000CF92DF92EF92FF9220914D0230914E0278
:100390008217930708F052C04B01AA24BB24E82D12
:1003A000C52ED62EE72EFF24FC2D342F209152028D
:1003B000222361F0829E40011124E92DC29E60013A
:1003C0001124FD2D429FD00111243B2FF0905802A3
:1003D000E0905502A0915302B0915402FE1008C063
:1003E000AC01440F551F840F951F8A0F9B1F14C02B
:1003F000880F991F880F991F8A0F9B1F472F55271A
:1004000066277727DC01AF0DB11D222321F0429F23
:10041000A0011124452F4C9320915502DC01A20F1D
:10042000B11DEC9320915602DC01A20FB11DFC938B
:1004300020915702FC01E20FF11D3083FF90EF90F5
:10044000DF90CF90BF90AF909F908F9008952F92A4
:100450003F924F925F926F927F928F929F92AF9254
:10046000BF92CF92DF92EF92FF920F931F93CF93A1
:10047000DF9300D000D000D0CDB7DEB700E010E0B1
:10048000C42ED12CE12CF12CC982DA82EB82FC82C1
:10049000C62ED12CE12CF12C882E912CA12CB12C24
:1004A0001E821D820F5F1F4F6D817E81600F711F45
:1004B000072E000C880B990B0E94D4120E946E1517
:1004C00020E030E04EEF52E40E94331320E030E0B1
:1004D00040E053E40E94551420E030E04FE753E43D
:1004E0000E94C1142B013C0169817A818B819C811E
:1004F0000E94D4129B01AC01C301B2010E943313CC
:100500000E943A15362EC701B6010E94D4129B01F3
:10051000AC01C301B2010E9433130E943A15262E8A
:10052000C501B4010E94D4129B01AC01C301B20108
:100530000E9433130E943A15232D422D8D819E81F6
:100540000E94B9068D819E8101969E838D83CB97F3
:1005500009F0AACF0E94C30662E370E080E090E059
:100560000E9429060637110509F09ACF26960FB684
:10057000F894DEBF0FBECDBFDF91CF911F910F91D9
:10058000FF90EF90DF90CF90BF90AF909F908F90B3
:100590007F906F905F904F903F902F9008952F9293
:1005A0003F924F925F926F927F928F929F92AF9203
:1005B000BF92CF92DF92EF92FF920F931F93CF9350
:1005C000DF93B82EA92E7B018A0180E480937C0002
:1005D00080917A00806480937A0080917A0086FD11
:1005E000FCCF609178008091790070E0782B072E25
:1005F000000C880B990B611571058105910511F0AF
:100600000E94C41265E370E080E090E00E94D30A8B
:10061000DC01CB014C016C0125E0C20ED11C40E095
:1006200050E06FEF70E00E94BC0140E050E06FEFDF
:1006300070E0C6010E94BC010E94C306CB2DDA2DDA
:100640001701FF0C44085508D7FD21C08FEF90E03B
:100650006B2D7A2D0E941216C69F3001C79F700C19
:10066000D69F700C112420E040E0662DC4010E944A
:10067000B90620E040E0662DC6010E94B9060E943E
:10068000C306C201B1010E9429062197DDCF40E0D7
:1006900060E080E00E94CC06B801110F880B990B36
:1006A000DF91CF911F910F91FF90EF90DF90CF904E
:1006B000BF90AF909F908F907F906F905F904F9082
:1006C0003F902F900C942906CF92DF92EF92FF92E9
:1006D0000F931F93CF93DF9302E210E0C9E1D0E0C4
:1006E00022E3C22ED12C40E060E080E00E94CC06E4
:1006F00040E050E069E170E0CE010E94BC01EE24D0
:10070000E394F12C40E050E06FEF70E0C7018C0FF4
:100710009D1F0E94BC018FEFE81AF80A89E0E816D5
:10072000F10481F740E050E069E170E0CE01099604
:100730000E94BC0140E050E069E170E0C8010E9405
:10074000BC01EE24E394F12C40E050E06FEF70E048
:10075000C8018E199F090E94BC018FEFE81AF80AA0
:1007600089E0E816F10481F740E050E069E170E0CB
:10077000C6018C1B9D0B0E94BC010E94C3066AE04F
:1007800070E080E090E00E94290621970F5F1F4FE4
:10079000CF3F8FEFD80709F0A6CF62E370E080E08B
:1007A00090E0DF91CF911F910F91FF90EF90DF903C
:1007B000CF900C942906CF92DF92EF92FF920F9385
:1007C0001F93CF93DF930BE310E0C0E0D0E022E370
:1007D000C22ED12C40E060E080E00E94CC0640E0D8
:1007E00050E069E170E0CE010E94BC01EE24E39488
:1007F000F12C40E050E06FEF70E0C7018C0F9D1FBF
:100800000E94BC018FEFE81AF80A89E0E816F104AB
:1008100081F740E050E069E170E0CE0109960E9466
:10082000BC0140E050E069E170E0C8010E94BC01F9
:10083000EE24E394F12C40E050E06FEF70E0C8014B
:100840008E199F090E94BC018FEFE81AF80A89E00F
:10085000E816F10481F740E050E069E170E0C6017C
:100860008C1B9D0B0E94BC010E94C3066AE070E0D5
:1008700080E090E00E942906219601501109CA31BA
:10088000D10509F0A7CF62E370E080E090E0DF914E
:10089000CF911F910F91FF90EF90DF90CF900C942C
:1008A00029060F931F93CF93DF93C0E0D0E040E081
:1008B00060E080E00E94CC0640E050E069E170E03A
:1008C000CE010E94BC0101E010E040E050E06FEF7B
:1008D00070E0C8018C0F9D1F0E94BC010F5F1F4F6D
:1008E0000930110591F740E050E069E170E0CE0178
:1008F00009960E94BC010E94C3066AE070E080E095
:1009000090E00E9429062196C133D10581F662E369
:1009100070E080E090E0DF91CF911F910F910C94F7
:100920002906089580E090E00895FC01538D448DE0
:10093000252F30E0842F90E0821B930B541710F08A
:10094000CF96089501970895FC01918D828D981797
:1009500061F0828DDF01A80FB11D5D968C91928DA3
:100960009F5F9F73928F90E008958FEF9FEF0895A0
:10097000FC01918D828D981731F0828DE80FF11D69
:10098000858D90E008958FEF9FEF0895FC01918D84
:10099000228D892F90E0805C9F4F821B91098F737D
:1009A000992708958EEA91E00E94C60421E0892BE0
:1009B00009F420E0822F0895FC01848DDF01A80F47
:1009C000B11DA35ABF4F2C91848D90E001968F7377
:1009D0009927848FA689B7892C93A089B1898C9196
:1009E00080648C93938D848D981306C00288F3895C
:1009F000E02D80818F7D80830895EF92FF920F9389
:100A00001F93CF93DF93EC0181E0888F9B8D8C8DBA
:100A1000981305C0E889F989808185FD24C0F62EE8
:100A20000B8D10E00F5F1F4F0F731127E02E8C8D81
:100A3000E8120CC00FB607FCFACFE889F98980816B
:100A400085FFF5CFCE010E94DC04F1CF8B8DFE0136
:100A5000E80FF11DE35AFF4FF0820B8FEA89FB8903
:100A60008081806207C0EE89FF896083E889F98907
:100A700080818064808381E090E0DF91CF911F913D
:100A80000F91FF90EF900895CF93DF93EC01888D45
:100A90008823C9F0EA89FB89808185FD05C0A88982
:100AA000B9898C9186FD0FC00FB607FCF5CF808108
:100AB00085FFF2CFA889B9898C9185FFEDCFCE0152
:100AC0000E94DC04E7CFDF91CF91089580E090E0B1
:100AD000892B29F00E94D20481110C940000089502
:100AE0001F920F920FB60F9211242F933F934F93A3
:100AF0005F936F937F938F939F93AF93BF93EF9386
:100B0000FF938EEA91E00E94DC04FF91EF91BF9188
:100B1000AF919F918F917F916F915F914F913F9195
:100B20002F910F900FBE0F901F9018951F920F924C
:100B30000FB60F9211242F938F939F93EF93FF93F0
:100B4000E091BE01F091BF018081E091C401F0917C
:100B5000C50182FD12C090818091C7018F5F8F73A4
:100B60002091C801821751F0E091C701F0E0E255F1
:100B7000FE4F958F8093C70101C08081FF91EF9157
:100B80009F918F912F910F900FBE0F901F901895EE
:100B9000CF93DF9390E0FC01E054FF4F2491FC01E0
:100BA000E252FF4F8491882361F190E0880F991FF2
:100BB000FC01EE50FF4FC591D491FC01EC52FF4F68
:100BC000A591B491611109C09FB7F89488812095CF
:100BD00082238883EC912E230BC0623061F49FB78F
:100BE000F8943881822F809583238883EC912E2B73
:100BF0002C939FBF06C08FB7F894E8812E2B2883D3
:100C00008FBFDF91CF9108953FB7F894809168022C
:100C100090916902A0916A02B0916B0226B5A89BDF
:100C200005C02F3F19F00196A11DB11D3FBFBA2F7E
:100C3000A92F982F8827820F911DA11DB11DBC01DE
:100C4000CD0142E0660F771F881F991F4A95D1F7A3
:100C500008958F929F92AF92BF92CF92DF92EF92C0
:100C6000FF926B017C010E9404064B015C01C114E0
:100C7000D104E104F104F1F00E940406DC01CB018F
:100C800088199909AA09BB09883E9340A105B105B5
:100C900070F321E0C21AD108E108F10888EE880E4D
:100CA00083E0981EA11CB11CC114D104E104F1041D
:100CB00019F7DDCFFF90EF90DF90CF90BF90AF900E
:100CC0009F908F9008952FB7F8946091640270916F
:100CD000650280916602909167022FBF08951F926E
:100CE0000F920FB60F9211242F933F938F939F93E0
:100CF000AF93BF938091640290916502A0916602C8
:100D0000B09167023091630223E0230F2D3720F466
:100D10000196A11DB11D05C026E8230F0296A11D55
:100D2000B11D209363028093640290936502A093A7
:100D30006602B09367028091680290916902A09167
:100D40006A02B0916B020196A11DB11D80936802E9
:100D500090936902A0936A02B0936B02BF91AF9126
:100D60009F918F913F912F910F900FBE0F901F90E9
:100D70001895362FE42F422F50E060E070E05E2B94
:100D8000632B0C94BC018091530290915402892BE7
:100D900011F00C94F1000895FF920F931F93CF93DD
:100DA000DF93182F062FF42EC0E0D0E02F2D402F18
:100DB000612FCE010E94B9062196CB33D105B1F740
:100DC000DF91CF911F910F91FF900C94C306853551
:100DD00058F4982F990F890F809360028095809323
:100DE00061021092620218C08A3A58F48555982F11
:100DF000990F890F982F909590936002109261023D
:100E000009C08A5A10926002982F990F890F809317
:100E1000610280958093620280E692E008952F92AD
:100E20003F924F925F926F927F928F929F92AF927A
:100E3000BF92CF92DF92EF92FF920F931F93CF93C7
:100E4000DF93CDB7DEB760970FB6F894DEBF0FBE65
:100E5000CDBF00E010E0C82ED12CE12CF12CCD82CA
:100E6000DE82EF82F886C62ED12CE12CF12CC986C9
:100E7000DA86EB86FC86C42ED12CE12CF12CCD86B3
:100E8000DE86EF86F88AB801012E000C880B990BDC
:100E90000E94D41220E030E040E85BE30E9433136C
:100EA0006B017C016D817E818F8198850E94D412B7
:100EB00069837A838B839C8369857A858B859C85FE
:100EC0000E94D4124B015C016D857E858F859889C7
:100ED0000E94D4122B013C019B01AC01C701B60159
:100EE0000E9433130E943A15262EA5019401C701D2
:100EF000B6010E9433130E943A15362E29813A8199
:100F00004B815C81C701B6010E9433130E943A15E0
:100F1000862F422D632D0E94CC060E94C3060F5FD0
:100F20001F4F011581E0180709F0ADCF22242A9444
:100F3000312CB101032C000C880B990B0E94D412A8
:100F400020E030E040E85BE30E9433136B017C015A
:100F5000A30192010E9433130E943A15062FA501A6
:100F60009401C701B6010E9433130E943A15162F4F
:100F700029813A814B815C81C701B6010E943313FC
:100F80000E943A15862F402F612F0E94CC060E94A6
:100F9000C30692E0291A3108AFEF2A163A0649F63D
:100FA00060960FB6F894DEBF0FBECDBFDF91CF9134
:100FB0001F910F91FF90EF90DF90CF90BF90AF9077
:100FC0009F908F907F906F905F904F903F902F9069
:100FD0000895CF92DF92EF92FF920F931F93CF93DA
:100FE000DF936C017A018B01C0E0D0E0CE15DF0504
:100FF00089F0D8016D918D01D601ED91FC910190A0
:10100000F081E02DC6010995892B11F47E0102C003
:101010002196ECCFC701DF91CF911F910F91FF90E7
:10102000EF90DF90CF9008950E9459170F931F9370
:10103000CF93DF93C1E3D0E040E060E080E00E9426
:10104000CC0640E050E069E170E0CE010E94BC01B6
:1010500001E010E040E050E06FEF70E0C8018C0F5D
:101060009D1F0E94BC010F5F1F4F0930110591F7B2
:1010700040E050E069E170E0CE0109960E94BC01B9
:101080000E94C3066AE070E080E090E00E942906BA
:10109000219791F662E370E080E090E0DF91CF91DC
:1010A0001F910F910C9429062F923F924F925F92BD
:1010B0006F927F928F929F92AF92BF92CF92DF9268
:1010C000EF92FF920F931F93CF93DF93CDB7DEB7CD
:1010D000A2970FB6F894DEBF0FBECDBF3C011B0137
:1010E0002DB73EB73AA329A3880F991F880F991FE0
:1010F0004DB75EB7481B590B0FB6F8945EBF0FBED5
:101100004DBFADB7BEB71196BC8BAB8BEDB7FEB77D
:10111000E81BF90B0FB6F894FEBF0FBEEDBF2DB75D
:101120003EB72F5F3F4F3E8B2D8B4DB75EB7481BB1
:10113000590B0FB6F8945EBF0FBE4DBFADB7BEB72B
:101140001196B88FAF8B9301220F331FEDB7FEB707
:10115000E21BF30B0FB6F894FEBF0FBEEDBF2DB729
:101160003EB72F5F3F4F3A8B298B4DB75EB7481B79
:10117000590B0FB6F8945EBF0FBE4DBFADB7BEB7EB
:101180001196BA8FA98FEDB7FEB7E81BF90B0FB612
:10119000F894FEBF0FBEEDBF2DB73EB72F5F3F4F98
:1011A0003C8F2B8F4DB75EB7461957090FB6F89491
:1011B0005EBF0FBE4DBF8DB79EB701962C01988BB9
:1011C0008F873C872B87AF89B88DBA87A987ED8930
:1011D000FE89F887EF8329893A893E832D834B89DD
:1011E0005C895C834B83898D9A8D9A83898300E027
:1011F00010E04301072C000CAA08BB0806151705D0
:101200000CF068C00E946306A981BA816D937D933A
:101210008D939D93BA83A983AB81BC8120E030E09C
:1012200040E85FE32D933D934D935D93BC83AB8387
:10123000ED81FE8111921192FE83ED83AF81B8851D
:1012400028E03EEB4DE850E42D933D934D935D93A4
:10125000B887AF83E985FA851192119211921192A4
:10126000FA87E987C501B4010E94D4126B017C01A1
:10127000B801012E000C880B990B0E94D4126D8FBF
:101280007E8F8F8F98A3A7019601C701B6010E9498
:1012900033139B01AC016D8D7E8D8F8D98A10E94C3
:1012A000C1149B01AC0166E676E686E69FE30E94E8
:1012B0005414AB85BC856D937D938D939D93BC87B2
:1012C000AB87EF85F88921E02193F88BEF870F5FDB
:1012D0001F4F94CFA1014E5F5F4F588B4F87EF890F
:1012E000F88DFA87E987298D3A8D3C832B834D89C8
:1012F0005E895A8349838B8D9C8D9E838D832B8839
:101300003C88A989BA89B887AF8300E010E0061548
:1013100017050CF0C2C00E946306AB81BC81CD9062
:10132000DD90ED90FC906C197D098E099F090E945B
:10133000D2126B017C01E985FA85619371938193E7
:101340009193FA87E98720E030E04AE754E40E946D
:10135000C114A981BA818D909D90AD90BC909B01E4
:10136000AC010E94331323EC35EF4CE950EC0E94A2
:1013700033136B877C878D879E87A7019601C501F4
:10138000B4010E94331320E030E04AE754E40E94A5
:10139000C1149B01AC016B857C858D859E850E9467
:1013A00055147101F101608371838283938320E07E
:1013B00030E0A9010E94CD1287FF2FC0D1011D92FC
:1013C0001D921D921C921397ED81FE812081318127
:1013D00042815381C501B4010E9433134B015C016A
:1013E000A981BA816D937D938D939C9313970E94ED
:1013F0006306EB81FC8160837183828393832AE09F
:1014000037ED43E25CE3C501B4010E94CD1287FFD2
:1014100004C0F201E00FF11F1082F4E02F0E311C26
:1014200020E030E048E652E4D7016D917D918D9146
:101430009C910E9433136B017C0120E030E0A901F4
:101440000E94691520E030E040E05FE387FD05C0C1
:10145000C701B6010E94551404C0C701B6010E941D
:1014600054140E943315EF81F88561937193F887C6
:10147000EF830F5F1F4F2D813E812C5F3F4F3E83D7
:101480002D8349815A814C5F5F4F5A8349838B81F9
:101490009C8104969C838B833ACF0F8518897201B7
:1014A000C988DA88B12CC701841995098615970572
:1014B000BCF4D8012C91F8013197408131976081BB
:1014C000F601819191916F010E94B906D7018D912A
:1014D0007D01882311F0BB24B3940D5F1F4FE3CF30
:1014E0000E94C30640E060E080E00E94CC06B1109C
:1014F000F6CEE9A1FAA10FB6F894FEBF0FBEEDBF7C
:10150000A2960FB6F894DEBF0FBECDBFDF91CF918C
:101510001F910F91FF90EF90DF90CF90BF90AF9011
:101520009F908F907F906F905F904F903F902F9003
:1015300008950F931F930E9463066093B601709302
:10154000B7018093B8019093B901E091AE01F09199
:10155000AF010484F585E02D8EEA91E0099597FFAF
:101560001FC00E9463060091B6011091B70120913F
:10157000B8013091B901DC01CB01801B910BA20BAA
:10158000B30B0091B2011091B3012091B4013091DD
:10159000B50180179107A207B307B8F28FEF9FEF4D
:1015A0001F910F910895CF93DF9300D000D0CDB756
:1015B000DEB7611571058105910579F09B01AC01DC
:1015C00069833A834B835C830E94BF1229813A81ED
:1015D0004B815C810E94F11303C060E070E0CB019D
:1015E0000F900F900F900F90DF91CF910895CF93B0
:1015F000DF93CDB7DEB7AD970FB6F894DEBF0FBE61
:10160000CDBF789484B5826084BD84B5816084BD8B
:1016100085B5826085BD85B5816085BD80916E0090
:10162000816080936E0010928100809181008260C1
:1016300080938100809181008160809381008091FE
:1016400080008160809380008091B10084608093ED
:10165000B1008091B00081608093B00080917A00E9
:10166000846080937A0080917A00826080937A000F
:1016700080917A00816080937A0080917A008068FE
:1016800080937A001092C100E091BE01F091BF01F9
:1016900082E08083E091BA01F091BB011082E09179
:1016A000BC01F091BD018FEC80831092C601E091E6
:1016B000C201F091C30186E08083E091C001F09106
:1016C000C101808180618083E091C001F091C101FE
:1016D000808188608083E091C001F091C1018081A8
:1016E00080688083E091C001F091C10180818F7D8D
:1016F000808385E291E00E94AA0189E491E00E9442
:10170000AA018091510287FD07C061E00E94C805CF
:10171000809151020E94AA0081E080934C02809146
:10172000530290915402892B11F00E94F1008CE039
:101730008093AD018EEA91E00E94C6041816190646
:101740000CF041C00E94990AFC0197FD13C08D3234
:10175000910509F4D2C5C0970A9708F4CEC5E09167
:10176000AE01F091AF010284F385E02D8EEA91E0A5
:101770000995E8CFE0E0E093AD018CE491E00E94B0
:10178000AA0189E491E00E94AA012091AD0130E014
:1017900040E050E019A28E010F5D1F4FCA01B90150
:1017A0002AE030E040E050E00E942314605DD80160
:1017B0006E938D01211531054105510579F7CD0154
:1017C0000E94AA01B7CFE091AD018E2F90E0833146
:1017D000910508F0BBC4FC01EC5CFF4F0C9426168D
:1017E00000E010E0E12CF12C0130110539F002305D
:1017F000110539F040E060E08E2D06C040E06E2D0E
:1018000002C04E2D60E080E00E94CC060E94C3061C
:1018100063E070E080E090E00E942906BFEFEB1AE1
:10182000FB0AE114E1E0FE06F9F6EE24EA94F12C5D
:101830000130110539F00230110539F040E060E067
:101840008E2D06C040E06E2D02C04E2D60E080E07F
:101850000E94CC060E94C30663E070E080E090E046
:101860000E942906F1E0EF1AF10810F70F5F1F4FF1
:101870000330110509F0B6CF69C440E060E08FEF96
:101880000E940F074FEF6FEF8FEF0E940F074FEF90
:1018900060E080E00E940F0759C40AE010E04FEFBB
:1018A0006FEF8FEF0E94CC060E94C30662E370E0E8
:1018B00080E090E00E94290640E060E080E00E9425
:1018C000CC060E94C30662E370E080E090E00E94D4
:1018D00029060150110919F768EE73E080E090E0E5
:1018E000C9C068E273E280E090E00E94D30A4B0135
:1018F0005C0164E670E080E090E00E94D30A6B0136
:101900007C016DE270E080E090E00E94D30A38EE46
:10191000830E33E0931EA11CB11C42E3C40ED11C04
:10192000E11CF11CDC01CB010596A11DB11DA40138
:10193000B6010E94CF0268E273E280E090E00E946C
:10194000D30A4B015C0164E670E080E090E00E9405
:10195000D30A6B017C016DE270E080E090E00E94B0
:10196000D30A58EE850E53E0951EA11CB11CA2E3CC
:10197000CA0ED11CE11CF11CDC01CB010596A11D96
:10198000B11DA401B6010E94CF02E0C300E010E047
:1019900040E060E080E00E94CC0640E050E069E179
:1019A00070E0C8010E94BC01EE24E394F12C40E0F9
:1019B00050E06FEF70E0C701800F911F0E94BC01E3
:1019C000BFEFEB1AFB0AE5E0EE16F10481F740E009
:1019D00050E069E170E0C80105960E94BC010E94D8
:1019E000C3066AE070E080E090E00E9429060F5F85
:1019F0001F4F0533110561F662E370E080E090E06F
:101A00000E94290605E310E040E060E080E00E94CB
:101A1000CC0640E050E069E170E0C8010E94BC01E2
:101A2000EE24E394F12C40E050E06FEF70E0C7014A
:101A3000800F911F0E94BC01FFEFEF1AFF0A25E003
:101A4000E216F10481F740E050E069E170E0C8017E
:101A500005960E94BC010E94C3066AE070E080E027
:101A600090E00E9429060150110971F662E370E0CE
:101A700080E090E00E94290669C30E9416080E9437
:101A800051040E94DB030E9464030E9451040E94DF
:101A900016080E94DB030E94640358C340E060E024
:101AA00080E00E94CC060AE010E00E94BF122BE307
:101AB00030E040E050E00E94F113DC01CB0140E057
:101AC00050E06FEF70E00E94BC010E94C30664E624
:101AD00070E080E090E00E9429060150110929F78A
:101AE00064E670E080E090E0C5CF40E060E080E038
:101AF0000E94CC0604E110E06FEF70E080E090E01F
:101B00000E94D30AD62E6FEF70E080E090E00E9432
:101B1000D30AE62E6FEF70E080E090E00E94D30AD7
:101B2000F62E0E94BF122BE330E040E050E00E940E
:101B3000F113DC01CB012D2D4E2D6F2D0E94B90626
:101B40000E94C30664E670E080E090E00E942906EF
:101B50000150110989F6C4CF0E94BF122BE330E077
:101B600040E050E00E94F1136B017C014FEF5FEF0A
:101B70006FEF70E0C6010E94BC010E94C30660E0E6
:101B800070E0CB010E94290640E050E0BA01C60196
:101B90000E94BC01DBC264E873E080E090E00E9438
:101BA000D30A6B017C0140E160E180E10E94CC0638
:101BB0000E94BF122BE330E040E050E00E94F1139E
:101BC0004B015C014FEF5FEF6FEF70E0C4010E94CB
:101BD000BC010E94C30664E170E080E090E00E94D6
:101BE000290640E150E160E170E0C4010E94BC01BF
:101BF0000E94C306D701C6018C599F4FAF4FBF4FFC
:101C0000BC01990F880B990B35CF40E060E08FEF56
:101C10000E9427024FEF6FEF8FEF0E9427024FEFD6
:101C200060E080E00E94270291C200E010E040E006
:101C30005FEF60E070E0C8010E94BC010E94C30633
:101C400062E370E080E090E00E9429060F5F1F4F82
:101C50000B33110561F700E010E040E050E0BA01FD
:101C6000C8010E94BC010E94C30662E370E080E0EC
:101C700090E00E9429060F5F1F4F0B33110569F793
:101C800065C2E12CF12C0BE3A02EB12CC12CD12C80
:101C900000E010E0C601B5010E94FE15862F8E0DF2
:101CA0000E94E706FC01228141816081C8010E94F7
:101CB000B9060F5F1F4FD3940B33110559F70E94DC
:101CC000C30664E170E080E090E00E9429064FEFD7
:101CD000E41AF40AE11455E0F506C1F637C21AE039
:101CE000C12ED12C00E010E0E12CF12C40E050E0BE
:101CF0006FEF70E0C701800F911F0E94BC0183E06D
:101D0000E80EF11C9CE3E916F10481F70E94C3067A
:101D100062E370E080E090E00E942906E12CF12C63
:101D200040E050E0BA01C701800F911F0E94BC0142
:101D3000A3E0EA0EF11CBCE3EB16F10489F70F5F98
:101D40001F4F0330110581F6E1E0CE1AD10851F69C
:101D5000FDC1C12CD12C00E010E0E12CF12CC70119
:101D60008C0D9D1D6FEF70E00E9412160E94E70619
:101D7000FC01228141816081C701800F911F0E9477
:101D8000B906F3E0EF0EF11C2CE3E216F10439F78B
:101D90000E94C30662E370E080E090E00E942906A2
:101DA000E12CF12C40E050E0BA01C701800F911FF7
:101DB0000E94BC0133E0E30EF11C4CE3E416F10495
:101DC00089F70F5F1F4F0330110539F65FEFC51A12
:101DD000D50AC11481E0D80609F0BDCFB7C1B2E77A
:101DE000EB2EB1E0FB2E87016BE070E080E090E02D
:101DF0000E94D30AD8014C91242F30E026173707D0
:101E000014F41C9204C0842F861BF80180830F5F9A
:101E10001F4FF1E00D3A1F0739F7EBEAF1E02DEA29
:101E200031E003E010E08081429190E0840F911D49
:101E3000840F911DB8010E941216D9016E939D0165
:101E4000B1E0E237FB0779F70E94BF122FEF30E0D5
:101E500040E050E00E94F11368377105810591055B
:101E6000ECF40E94BF1227E030E040E050E00E9416
:101E7000F1138B010E581E4FF801D0806FE570E012
:101E800080E090E00E94D30ADC01CB0180569F4F96
:101E9000AF4FBF4F6D2D680FD8016C9300E010E07D
:101EA000F70161917F0170E080E090E00E94D41220
:101EB00020E030E04FE753E40E94C11420E030E01E
:101EC0004FE353E40E9433134B015C0120E030E008
:101ED000A9010E94691520E030E040E05FE387FD42
:101EE00005C0C501B4010E94551404C0C501B40168
:101EF0000E9454140E943315862F880F880F613872
:101F000050F0482F50E060E070E05F6F6F6FC801E5
:101F10000E94BC010BC020E0613418F0482F6FEF25
:101F200002C040E0682FC8010E94B9060F5F1F4F32
:101F30000B33110509F0B4CF0E94C3066FE070E0C7
:101F400080E090E097CD8FEF89831A821B82BE01DB
:101F50006F5F7F4F81E090E00EC089E0EAE0F1E042
:101F6000DE01119601900D928A95E1F7BE016F5F37
:101F70007F4F83E090E00E945408E8C040E060E0BA
:101F800080E00E94CC06812C912C212C312C1BA2AC
:101F90001AA2A12CB12C0E94BF122AE030E040E02E
:101FA00050E00E94F11366307105810591050CF433
:101FB00098C0E0914D02F0914E02FFA3EEA3AE1641
:101FC000BF0608F059C12091580230915502009186
:101FD000530210915402C0905202822F90E0F0916F
:101FE0005602FCA3409157024DA32313CAC0AAA1D5
:101FF000BBA10A0F1B1FCC2009F4ABC0D12CE12CD4
:10200000F12CF801E80FF91F608170E0762F662748
:10201000072E000C880B990BA70196010E94231430
:10202000390155244424F801BCA1EB0FF11D608156
:1020300070E0762F6627072E000C880B990BA701FE
:1020400096010E942314B42FA32F922F8827482A89
:10205000592A6A2A7B2AF8012DA1E20FF11D60811D
:1020600070E0762F6627072E000C880B990BA701CE
:1020700096010E942314422A532A642A752A462D67
:1020800050E060E070E0852D90E0A0E0B0E0142D1D
:102090004B3051056105710508F4F2C0FA0126E0E4
:1020A000EE0FFF1F2A95E1F74F1B8B309105A1051D
:1020B000B10508F4E7C09C0196E0220F331F9A9502
:1020C000E1F7831B1B3008F4DFC050E4159F90013B
:1020D0001124412E431AAEA1BFA1AA16BB0608F4D3
:1020E000D5C03FEFA31AB30A4AA15BA14D5F5F4F72
:1020F0005BA34AA354E0250E311C8BE3A816B10460
:1021000009F049CF840174019AE0E91AF1080B3310
:10211000110538F44FEF5FEF6FEF70E0C8010E94D8
:10212000BC01015011090E151F0589F70E94C30655
:102130006EE170E080E090E00E942906AFEF8A1A1D
:102140009A0AB6E78B16910409F01FCF0E94660524
:10215000F1CAF801E80FF91F8081F8013CA1E30FF3
:10216000F11D4080512C612C712C762C652C542C47
:102170004424682AF8014DA1E40FF11D8081482A0A
:102180007ECF020D131DA32FB0E0B9A7A8A7CC20C6
:1021900009F45AC0D12CE12CF12CF801E80FF91FF9
:1021A000608170E0762F6627072E000C880B990B54
:1021B000A70196010E942314722E662455244424FC
:1021C000E8A5F9A5E00FF11F608170E0762F662782
:1021D000072E000C880B990BA70196010E9423146F
:1021E000D90199278827482A592A6A2A7B2AF8017F
:1021F000BDA1EB0FF11D608170E0762F6627072EE1
:10220000000C880B990BA70196010E942314422A07
:10221000532A642A752AF8012CA1E20FF11D60816E
:1022200070E0762F6627072E000C880B990BA7010C
:1022300096010E942314B42FA32F922F8827482A97
:10224000592A6A2A7B2A1BCFE8A5F9A5E00FF11FBE
:102250004080512C612C712C320155244424F8010A
:102260003DA1E30FF11D8081482AF8014CA1E40F44
:10227000F11D8081582A03CF412C512C3201FFCE11
:1022800040E013CF80E01ECF412C25CF9091520229
:10229000992361F0499FA0011124452F899F900146
:1022A0001124832F499E20011124452C909158021E
:1022B00020915502E0915302F0915402921305C00F
:1022C0002AA13BA1E20FF31F06C0E20DF31DDF01BF
:1022D000A90FB11D1C9290915502DF01A90FB11DEC
:1022E0004C9390915602DF01A90FB11D8C93809100
:1022F0005702E80FF11D4082F4CE20E030E0A90142
:1023000010E0E130F105E9F0ED32F105C9F0CF015F
:10231000C0970A97B0F4AAE0B0E00E9410146F01D1
:10232000FF0FEE08FF08DC01CB018C0D9D1DAE1DDB
:10233000BF1D9C01AD01205331094109510901C064
:1023400011E0E091AE01F091AF010284F385E02D40
:102350008EEA91E02AA73BA74CA75DA709950E94AA
:10236000990AFC01C0972AA53BA54CA55DA50A9733
:1023700040F2E130F10529F2E22F112309F4FBC903
:10238000E195F9C91092B1011092B00188EE93E085
:10239000A0E0B0E08093B2019093B301A093B401A8
:1023A000B093B50187E191E09093AF018093AE01C6
:1023B00085EC90E09093BB018093BA0184EC90E0AF
:1023C0009093BD018093BC0180EC90E09093BF019D
:1023D0008093BE0181EC90E09093C1018093C00195
:1023E00082EC90E09093C3018093C20186EC90E070
:1023F0009093C5018093C4011092C7011092C80147
:102400001092C9011092CA0110924C02109252020D
:102410001092590210925A0210925B0210925C02C2
:1024200083E0809358021092550281E08093560217
:1024300092E09093570280934B028CEE90E0909341
:10244000500280934F020E942C1690935402809366
:102450005302009761F02CEEFC0111922A95E9F7E6
:102460008BE390E090934E0280934D0208C010924F
:10247000500210924F0210924E0210924D0286E0CE
:102480008093510280914C02882339F061E086E00C
:102490000E94C80586E00E94AA00E4EEF0E0E49104
:1024A000F0E0EE0FFF1FEC52FF4F85919491909357
:1024B0005E0280935D02E6ECF0E0E491E0935F025F
:1024C00008958091530290915402009711F00E9458
:1024D000C1168091510287FD03C060E00C94C805CD
:1024E00008958F929F92AF92BF92CF92DF92EF9218
:1024F000FF92CF93DF93EC01688179818A819B8180
:10250000611571058105910521F464E279ED8BE592
:1025100097E02DE133EF41E050E00E94F1134901D3
:102520005A019B01AC01A7EAB1E40E9410146B01AF
:102530007C01ACEEB4EFA50194010E941E14DC01F5
:10254000CB018C0D9D1DAE1DBF1DB7FF03C00197B4
:10255000A109B04888839983AA83BB83BC01CD01BC
:102560009F77DF91CF91FF90EF90DF90CF90BF905A
:10257000AF909F908F9008950E947112089580E00F
:1025800091E00E947112089560930001709301011F
:10259000809302019093030108950E940F1308F4A1
:1025A00081E00895E89409C097FB3EF490958095EA
:1025B000709561957F4F8F4F9F4F9923A9F0F92F09
:1025C00096E9BB279395F695879577956795B79587
:1025D000F111F8CFFAF4BB0F11F460FF1BC06F5F6D
:1025E0007F4F8F4F9F4F16C0882311F096E911C07F
:1025F000772321F09EE8872F762F05C0662371F0A0
:1026000096E8862F70E060E02AF09A95660F771FB3
:10261000881FDAF7880F9695879597F90895990F8F
:102620000008550FAA0BE0E8FEEF16161706E8079C
:10263000F907C0F012161306E407F50798F0621BBD
:10264000730B840B950B39F40A2661F0232B242B92
:10265000252B21F408950A2609F4A140A6958FEFB1
:10266000811D811D08950E9446130C94B7130E948A
:10267000A91338F00E94B01320F0952311F00C94A8
:10268000A0130C94A61311240C94EB130E94C813EE
:1026900070F3959FC1F3950F50E0551F629FF001B5
:1026A000729FBB27F00DB11D639FAA27F00DB11DCE
:1026B000AA1F649F6627B00DA11D661F829F222757
:1026C000B00DA11D621F739FB00DA11D621F839FDE
:1026D000A00D611D221F749F3327A00D611D231FB4
:1026E000849F600D211D822F762F6A2F11249F5702
:1026F00050409AF0F1F088234AF0EE0FFF1FBB1F05
:10270000661F771F881F91505040A9F79E3F5105C3
:1027100080F00C94A0130C94EB135F3FE4F3983E0D
:10272000D4F3869577956795B795F795E7959F5F6D
:10273000C1F7FE2B880F911D9695879597F90895FF
:1027400097F99F6780E870E060E008959FEF80EC64
:10275000089500240A941616170618060906089507
:1027600000240A9412161306140605060895092E6D
:102770000394000C11F4882352F0BB0F40F4BF2BDC
:1027800011F460FF04C06F5F7F4F8F4F9F4F08951C
:1027900057FD9058440F551F59F05F3F71F0479512
:1027A000880F97FB991F61F09F3F79F087950895F7
:1027B000121613061406551FF2CF4695F1DF08C016
:1027C000161617061806991FF1CF86957105610533
:1027D00008940895E894BB2766277727CB0197F9DB
:1027E0000895052E97FB1EF400940E94081457FDCF
:1027F00007D00E94231407FC03D04EF40C94081455
:1028000050954095309521953F4F4F4F5F4F08951C
:1028100090958095709561957F4F8F4F9F4F08954C
:102820000E944514A59F900DB49F900DA49F800D0C
:10283000911D11240895B7FF0C9410140E941014D8
:10284000821B930B0895A1E21A2EAA1BBB1BFD014C
:102850000DC0AA1FBB1FEE1FFF1FA217B307E4077F
:10286000F50720F0A21BB30BE40BF50B661F771FD7
:10287000881F991F1A9469F76095709580959095B7
:102880009B01AC01BD01CF010895A29FB001B39F90
:10289000C001A39F700D811D1124911DB29F700D69
:1028A000811D1124911D08955058BB27AA270E940D
:1028B0006C140C94B7130E94A91338F00E94B01343
:1028C00020F039F49F3F19F426F40C94A6130EF46B
:1028D000E095E7FB0C94A013E92F0E94C81358F36E
:1028E000BA17620773078407950720F079F4A6F5F5
:1028F0000C94EA130EF4E0950B2EBA2FA02D0B01C9
:10290000B90190010C01CA01A0011124FF27591B34
:1029100099F0593F50F4503E68F11A16F040A22F3A
:10292000232F342F4427585FF3CF469537952795AB
:10293000A795F0405395C9F77EF41F16BA0B620BAA
:10294000730B840BBAF09150A1F0FF0FBB1F661FF1
:10295000771F881FC2F70EC0BA0F621F731F841F34
:1029600048F4879577956795B795F7959E3F08F05A
:10297000B0CF9395880F08F09927EE0F979587951C
:1029800008950E94D5140C94B7130E94B01358F008
:102990000E94A91340F029F45F3F29F00C94A01382
:1029A00051110C94EB130C94A6130E94C81368F3F6
:1029B0009923B1F3552391F3951B550BBB27AA27F8
:1029C00062177307840738F09F5F5F4F220F331F32
:1029D000441FAA1FA9F335D00E2E3AF0E0E832D0FA
:1029E00091505040E695001CCAF72BD0FE2F29D0FD
:1029F000660F771F881FBB1F261737074807AB07CF
:102A0000B0E809F0BB0B802DBF01FF2793585F4F43
:102A10003AF09E3F510578F00C94A0130C94EB1300
:102A20005F3FE4F3983ED4F3869577956795B79525
:102A3000F7959F5FC9F7880F911D9695879597F930
:102A40000895E1E0660F771F881FBB1F62177307A9
:102A50008407BA0720F0621B730B840BBA0BEE1FBE
:102A600088F7E09508950E943A156894B1110C9486
:102A7000EB1308950E94D01388F09F5798F0B92F58
:102A80009927B751B0F0E1F0660F771F881F991FA3
:102A90001AF0BA95C9F714C0B13091F00E94EA1348
:102AA000B1E008950C94EA13672F782F8827B85F58
:102AB00039F0B93FCCF3869577956795B395D9F7FB
:102AC0003EF490958095709561957F4F8F4F9F4F05
:102AD00008950E940F1308F48FEF08959F930E94AA
:102AE00078150F9007FCEE5F0C94A1150C94A613BB
:102AF0000E94D013D8F3E894E0E0BB279F57F0F092
:102B00002AED3FE049EC06C0EE0FBB0F661F771FB2
:102B1000881F28F0B23A62077307840728F0B25A78
:102B2000620B730B840BE3959A9572F7803830F43F
:102B30009A95BB0F661F771F881FD2F790480C9499
:102B4000B715EF93E0FF07C0A2EA2AED3FE049EC9A
:102B50005FEB0E946C140E94B7130F90039401FC6A
:102B60009058EEE8F0E00C94C3159F3F31F091507F
:102B700020F4879577956795B795880F911D969561
:102B8000879597F908959F938F937F936F93FF9302
:102B9000EF939B01AC010E943313EF91FF910E94D0
:102BA000D7152F913F914F915F910C943313DF9381
:102BB000CF931F930F93FF92EF92DF927B018C01D3
:102BC000689406C0DA2EEF010E944613FE01E894D5
:102BD000A5912591359145915591A6F3EF010E945C
:102BE0006C14FE019701A801DA9469F7DF90EF9069
:102BF000FF900F911F91CF91DF910895AA1BBB1BEE
:102C000051E107C0AA1FBB1FA617B70710F0A61BEC
:102C1000B70B881F991F5A95A9F780959095BC010D
:102C2000CD01089597FB072E16F4009407D077FD89
:102C300009D00E94FE1507FC05D03EF490958195C1
:102C40009F4F0895709561957F4F0895EE0FFF1F78
:102C50000590F491E02D0994CF93DF938230910594
:102C600010F482E090E0E0916E02F0916F0220E0BB
:102C700030E0C0E0D0E0309711F140815181481739
:102C80005907C0F04817590761F482819381209752
:102C900019F09B838A832BC090936F0280936E02FE
:102CA00026C02115310519F04217530718F49A016F
:102CB000BE01DF01EF010280F381E02DDCCF2115A1
:102CC000310509F1281B390B2430310590F4129697
:102CD0008D919C9113976115710521F0FB019383F0
:102CE000828304C090936F0280936E02FD0132963E
:102CF00044C0FD01E20FF31F8193919322503109EB
:102D00002D933C933AC020916C0230916D02232B9D
:102D100041F4209106013091070130936D02209318
:102D20006C0220910401309105012115310541F417
:102D30002DB73EB74091080150910901241B350B76
:102D4000E0916C02F0916D02E217F307A0F42E1BE4
:102D50003F0B2817390778F0AC014E5F5F4F2417FF
:102D6000350748F04E0F5F1F50936D0240936C0281
:102D70008193919302C0E0E0F0E0CF01DF91CF9129
:102D800008950F931F93CF93DF93009709F48CC09E
:102D9000FC0132971382128200916E0210916F0231
:102DA0000115110581F420813181820F931F20913B
:102DB0006C0230916D022817390779F5F0936D0296
:102DC000E0936C0271C0D80140E050E0AE17BF073D
:102DD00050F412962D913C911397AD0121153105B8
:102DE00009F1D901F3CF9D01DA0133832283608198
:102DF0007181860F971F8217930769F4EC01288170
:102E00003981260F371F2E5F3F4F318320838A8100
:102E10009B8193838283452B29F4F0936F02E09387
:102E20006E0242C01396FC93EE931297ED01499106
:102E300059919E01240F351FE217F30771F4808129
:102E40009181840F951F029611969C938E93828197
:102E5000938113969C938E931297E0E0F0E0D80153
:102E600012968D919C911397009719F0F8018C019F
:102E7000F6CF8D919C9198012E5F3F4F820F931F4B
:102E800020916C0230916D022817390769F4309750
:102E900029F410926F0210926E0202C01382128205
:102EA00010936D0200936C02DF91CF911F910F91EF
:102EB000089581E090E0F8940C945E1710E0CFE75D
:102EC000D0E004C0FE010E9426162196C038D1072A
:062ED000C9F7F894FFCFE2
:102ED60001000000000070028000FF0000FFFFFFFD
:102EE6000000FF00000000FD04E90795044405C644
:102EF60004A404B80453657269616C20706F72741F
:102F060020697320736574207570206F6E2061725E
:102F16006469756E6F2E2E2E000D0A0056616C7553
:102F260065206F66207265636569766564207365E2
:102F36006C65637465644566666563742069733A97
:022F4600000089
:107E0000112484B714BE81FFF0D085E080938100F7
:107E100082E08093C00088E18093C10086E0809377
:107E2000C20080E18093C4008EE0C9D0259A86E02C
:107E300020E33CEF91E0309385002093840096BBD3
:107E4000B09BFECF1D9AA8958150A9F7CC24DD24C4
:107E500088248394B5E0AB2EA1E19A2EF3E0BF2EE7
:107E6000A2D0813461F49FD0082FAFD0023811F036
:107E7000013811F484E001C083E08DD089C08234E0
:107E800011F484E103C0853419F485E0A6D080C0E4
:107E9000853579F488D0E82EFF2485D0082F10E0AE
:107EA000102F00270E291F29000F111F8ED06801E7
:107EB0006FC0863521F484E090D080E0DECF843638
:107EC00009F040C070D06FD0082F6DD080E0C81688
:107ED00080E7D80618F4F601B7BEE895C0E0D1E017
:107EE00062D089930C17E1F7F0E0CF16F0E7DF06D8
:107EF00018F0F601B7BEE89568D007B600FCFDCFD4
:107F0000A601A0E0B1E02C9130E011968C91119780
:107F100090E0982F8827822B932B1296FA010C0160
:107F200087BEE89511244E5F5F4FF1E0A038BF0790
:107F300051F7F601A7BEE89507B600FCFDCF97BE46
:107F4000E89526C08437B1F42ED02DD0F82E2BD052
:107F50003CD0F601EF2C8F010F5F1F4F84911BD097
:107F6000EA94F801C1F70894C11CD11CFA94CF0C13
:107F7000D11C0EC0853739F428D08EE10CD085E9AC
:107F80000AD08FE07ACF813511F488E018D01DD067
:107F900080E101D065CF982F8091C00085FFFCCF94
:107FA0009093C60008958091C00087FFFCCF809118
:107FB000C00084FD01C0A8958091C6000895E0E648
:107FC000F0E098E1908380830895EDDF803219F02E
:107FD00088E0F5DFFFCF84E1DECF1F93182FE3DFCA
:107FE0001150E9F7F2DF1F91089580E0E8DFEE27F6
:047FF000FF270994CA
:027FFE00040479
:0400000300007E007B
:00000001FF